:020000040800F2
:10000000086D00205D0200080345000893350008D4
:1000100001450008010A0008096C00080000000002
:100020000000000000000000000000009D0100082A
:10003000110B000800000000F9010008654C0008E1
:10004000316C000877020008770200087702000888
:10005000770200087702000877020008770200089C
:10006000770200087702000877020008770200088C
:100070007D0A000877020008890A00087702000854
:10008000770200087702000877020008770200086C
:10009000770200087702000877020008770200085C
:1000A000770200083D4D000877020008770200083B
:1000B000770200087702000877020008770200083C
:1000C000770200087702000877020008770200082C
:1000D0007702000877020008B55000087702000890
:1000E000770200087702000877020008770200080C
:1000F00077020008770200087702000877020008FC
:1001000077020008770200087702000877020008EB
:1001100077020008770200087702000877020008DB
:1001200077020008770200087702000877020008CB
:1001300077020008770200087702000877020008BB
:1001400077020008770200087702000805450008DA
:10015000770200087702000877020008770200089B
:10016000770200087702000877020008770200088B
:1001700077020008770200087702000800000000FC
:100180007702000877020008DFF80CD000F010FBBF
:100190000048004701760008086D00202C4B1968C4
:1001A0000868B0E8F04F80F30988BFF36F8F4FF015
:1001B000000080F3118870470000000008480068C4
:1001C000006880F308884FF0000080F3148862B65E
:1001D00061B6BFF34F8FBFF36F8F00DF00BF00BF6B
:1001E00008ED00E0DFF80C00016841F470010160E7
:1001F000704700BF88ED00E0EFF30980BFF36F8F19
:10020000134B1A681EF0100F08BF20ED108A20E96A
:10021000F04F106009B44FF0500080F31188BFF325
:100220004F8FBFF36F8F08F011FA4FF0000080F38B
:10023000118809BC19680868B0E8F04F1EF0100F6B
:1002400008BFB0EC108A80F30988BFF36F8F704746
:1002500044000020EFF30580704700000648804707
:1002600006480047FEE7FEE7FEE7FEE7FEE7FEE79B
:10027000FEE7FEE7FEE7FEE72D4D000889010008D6
:100280002DE9F05F0546002092469B4688460646CB
:10029000814640241BE0284641464746224600F05E
:1002A000BFF853465A46C01A914110D3114618461A
:1002B000224600F0A6F82D1A67EB01084F462246A9
:1002C0000120002100F09DF817EB00094E41201E8F
:1002D000A4F10104DFDC484631462A464346BDE826
:1002E000F09F40EA01039B0703D009E008C9121FF1
:1002F00008C0042AFAD203E011F8013B00F8013BE0
:10030000521EF9D27047D2B201E000F8012B491E0B
:10031000FBD270470022F6E710B513460A460446A2
:100320001946FFF7F0FF204610BD421E12F8013FAC
:10033000002BFBD111F8013B02F8013B002BF9D156
:10034000704730B505462A460B4612F8010B13F8E4
:10035000014B08B1A042F8D01CB1002802D06D1C9E
:10036000F1E7284630BDCAB2401E10F8011F8A428C
:1003700002D00029F9D100207047421C10F8011B5F
:100380000029FBD1801A704710B5044600E0401CDC
:100390000378002BFBD100E0401C521E04D311F85F
:1003A000013B0370002BF7D100210170204610BDE6
:1003B00000F0004230F000400AD0C10D01F560713C
:1003C000C0F3160042EA0151C208400711437047CA
:1003D00000200146704730B50B4601460020202220
:1003E000012409E021FA02F59D4205D303FA02F542
:1003F000491B04FA02F52844151EA2F10102F1DCA2
:1004000030BD202A04DB203A00FA02F100207047B8
:100410009140C2F1200320FA03F319439040704742
:10042000202A04DB203A21FA02F00021704721FA49
:1004300002F3D040C2F120029140084319467047B0
:100440002DE9FE4F804681EA0300C00F0C46009064
:1004500021F0004123F00045B8EB0200A94105D28C
:100460004046214690461C460B46024623F000407B
:10047000104347D0270DC7F30A00C3F30A51029077
:10048000401A019040286BDAC3F3130040F4801B3C
:100490000098924620B10023D2EB030A63EB0B0BCA
:1004A00001985946C0F140025046FFF7AAFF0646A0
:1004B0000D4650465946019A00F08CF910EB0800A1
:1004C0006141002487EA115284EAE7731A4340D05D
:1004D000009A62B3019A012A4FEA075215DC001B09
:1004E00061EB02014FF0004202EA0752CDE90042FF
:1004F000001C41F5801132462B4600F08CF903B008
:10050000BDE8F08F40462146F9E7001B61EB020190
:10051000001C41F5801300185B412018A2F500175C
:1005200047EB030140EAD570B6196D4111E06D0843
:100530004FEA360645EAC0754FEA0752001B61EBE9
:100540000201001C41F5801149084FEA30000019F2
:10055000514132462B4603B0BDE8F04F00F04CB994
:100560000098012240000023D0EB020263EBE0730D
:10057000009821464FEAE074B8EB000061EB0401FB
:10058000E9E783F000435BE781F0004158E72DE99C
:10059000FE4F81EA030404F0004421F0004100947E
:1005A0004FF0000B23F0004350EA01045ED052EA02
:1005B00003045BD0C3F30A54C1F30A552C44A4F2DC
:1005C000F3340194A0FB0254C1F3130141F48011F0
:1005D000C3F3130343F4801301FB024400FB034EF7
:1005E000840A970A44EA815447EA8357A4FB0768C0
:1005F00002958D0A05FB07854FEA932C04FB0C54EA
:100600002705029D4FEA065847EA1637B5EB08055D
:100610006EEB070C870E920E47EA811742EA8312AF
:10062000A7FB0201B6EB0B0164EB00042B0D43EAC0
:100630000C335E1844EB1C50DA465146E7FB0201CE
:10064000C5F313044FEA0B3343EA14534FEA043261
:10065000019C43EA0603A4F10C040294009CCDE93A
:1006600000B400F0D8F803B0BDE8F08F00200146D8
:10067000F9E72DE9F04D81EA030404F0004B21F085
:10068000004514464FF0000A23F0004150EA0502ED
:1006900020D054EA01021DD0C5F30A570246C5F323
:1006A0001303C1F31300C1F30A5640F4801543F459
:1006B0008013A7EB0608101BD64608F2FD3873EB33
:1006C000050002D308F1010801E092185B41B8F17E
:1006D000000F03DA00200146BDE8F08D00204FF442
:1006E0008011064684460EE0171B73EB050705D301
:1006F000121B63EB050306434CEA010C49084FEA61
:10070000300092185B4150EA0107EDD152EA030034
:1007100012D082EA040083EA0501084305D0101BC9
:10072000AB4106D20122002306E000224FF0004335
:1007300002E06FF0010253101AEB06004CEB085177
:1007400010EB0A0041EB0B01BDE8F04D00F054B88E
:10075000C1F30A52C1F3130140F2FF3341F4801197
:100760009A4202DA00200146704740F233439A422F
:10077000A2F2334202DC5242FFF752BEFFF741BE03
:1007800030B5041E71F1000404DB4FF00044404218
:1007900064EB0101141E73F1000405DB1C464FF0ED
:1007A0000043524263EB0403994208BF904230BDBC
:1007B000064C074D06E0E06840F0010394E80700AE
:1007C00098471034AC42F6D3FFF7E2FC38940008A7
:1007D00058940008202A06DBCB17203A41FA02F091
:1007E00043EAE07306E041FA02F3D040C2F120028E
:1007F000914008431946704710B5141E73F1000468
:1008000008DA401C41F1000192185B411A4301D102
:1008100020F0010010BD2DE9F04D92469B4611B12C
:10082000B1FA81F202E0B0FA80F220329046FFF78E
:10083000E8FD04460F4640EA0A0041EA0B01534630
:100840005A46084313D0114653EA010019D0C8F1A3
:1008500040025046FFF7E4FD05460E465046594615
:100860004246FFF7CEFD084305D0012004E02046B4
:100870003946BDE8F08D0020054346EAE0762C437A
:1008800037430A986305E40AA0EB08000022FD0A3A
:1008900044EA47540A3002D500200146E9E7010541
:1008A00010196941DDE9084500196941BDE8F04DBD
:1008B000A2E770B58C1810F8015B15F0070301D1A1
:1008C00010F8013B2A1106D110F8012B03E010F8B3
:1008D000016B01F8016B5B1EF9D12B0705D40023D6
:1008E000521E0DD401F8013BFAE710F8013BCB1A78
:1008F000921C03E013F8015B01F8015B521EF9D56D
:10090000A142D8D3002070BD2DED028B84B09FEDA5
:10091000270A00208DED000A0290039003F054F89E
:10092000C82000F017FC012510269FED218A214CDC
:10093000B5F102078DF80450012101A802F036FE3E
:1009400030B100BF9DF804101BA007F035FCF1E7A3
:100950008DF80460012101A802F028FE0028F1D1E1
:10096000C82000F0F7FB022102A802F013FE18B124
:100970001BA007F021FCDDE79DF809009DF8081099
:10098000012300EB012000EE100A3A466946F8EE1A
:10099000C00A80EE880A8DED000A84ED020AE06943
:1009A00007F094FF012006F0C5FEC3E70000000039
:1009B0009A99993F000000204932435F42483137FD
:1009C00035305F4F7065636F64655F57726974653A
:1009D0003A20253278204572726F720A00000000BA
:1009E0004932435F4248313735305F446174615F5B
:1009F000526561643A20204572726F720A000000ED
:100A0000FEE704284FF00000704700207047000008
:100A100010B500220449054804F09FFC044903482E
:100A200004F091FC002010BDDC5800200C4C00208C
:100A3000DC50002010B50146034804F084FC024855
:100A400004F060FC002010BD0C4C0020002070471A
:100A500010B50A460849D1F8BC12D1F81412002981
:100A600001D0012010BD0146034804F076FCBDE82A
:100A70001040014804F0FABC0C4C0020014800F082
:100A80002FBA0000900A0020014800F029BA0000A7
:100A9000F00A002001681823CAB2103AB2FBF3F240
:100AA000054B6FF30901032A9B5CC36500D9091D3F
:100AB0008165084670470000E893000810B50146BC
:100AC00000208B698A6A4FF0C07453B1B3F5005FA0
:100AD00015D072B1012A0CD0022A0AD0032A09D1FA
:100AE00004E01AB1012A06D0022A03D1C96AC90159
:100AF00000D5012010BDC96AA142FAD010BD002A5C
:100B0000F7D0012AF2D0022AF3D0032AF3D010BD85
:100B10007047000010B580210348FFF7FBFB034935
:100B20000020088010BD00003C0D00202C0000209B
:100B300010B5044600F04AF958B90AA10B48FFF76E
:100B400000FC30B13A21FFF70EFC002800D0401C19
:100B500010BD052000F0FEFA2046641EA4B2E9D2C2
:100B600010BD00004950442C000000003C0D002046
:100B70002F4810B50068C16841F02001C160FFF73F
:100B8000C9FF2CA007F018FB02E0642000F0E2FA95
:100B90002AA12BA000F0D2F80028F6D12AA007F055
:100BA0000BFB28A12BA000F0C9F8642000F0D2FABA
:100BB00024A12BA000F0C2F8642000F0CBFA2CA0F6
:100BC00007F0FAFA02E0642000F0C4FA1BA12BA09F
:100BD00000F0B4F80028F6D12CA007F0EDFA02E0FE
:100BE000642000F0B7FA15A12CA000F0A7F80028A7
:100BF000F6D12EA007F0E0FA02E0642000F0AAFA95
:100C00002DA12FA000F09AF80028F6D134A007F00B
:100C1000D3FA02E0642000F09DFA35A136A000F07E
:100C20008DF80028F6D1BDE810403EA007F0C4BA08
:100C3000080A0020302E2041540D0A004F4B0000BE
:100C400041540D0A00000000312E205253540D0A69
:100C50000000000041542B5253540D0A00000000C4
:100C600041542B434950434C4F53450D0A0000005B
:100C7000322E2043574D4F44450D0A0041542B431B
:100C8000574D4F44453D310D0A000000332E2041A1
:100C9000542B4357444843500D0A000041542B4302
:100CA00057444843503D312C310D0A00342E204327
:100CB000574A41500D0A0000474F54204950000048
:100CC00041542B43574A41503D2241636532222C07
:100CD00022313233373830383037220D0A000000E5
:100CE000352E2043495053544152540D0A00000000
:100CF000434F4E4E4543540041542B4349505354A7
:100D00004152543D22544350222C223138332E324A
:100D100033302E34302E3339222C363030320D0A17
:100D200000000000362E2045535038323636204918
:100D30006E6974204F4B0D0A0000000070B50E461E
:100D40000546C824FFF719FB82B229460B4805F077
:100D50005DFF0EE000F03AF840B931460848FFF771
:100D6000F0FA18B1FFF7D6FE002070BD0A2000F09F
:100D7000F1F9641EE4B2EDD2012070BD080A002032
:100D80003C0D002030B589B00C460546FFF7C2FE89
:100D9000224608A1684605F051FF0AA16846FFF700
:100DA000CDFF002804D122462946074805F02EFF32
:100DB00009B030BD41542B43495053454E443D2565
:100DC000640D0A003E000000080A00200648018861
:100DD00031B14288914205D1002101800846704717
:100DE000012070474180FBE72C00002072B6FEE72F
:100DF00070B50B480168001D0568001D00680844B7
:100E000000280CD0074C0822A11C02F001FE04F1BE
:100E100012012846BDE87040042202F0F9BD70BD01
:100E2000107AFF1FF40000202DE9F0410446876D81
:100E300000F0A0FA064694F835000025022806D0F6
:100E40008020606584F834500120BDE8F08120687E
:100E5000016821F0160101602068416921F08001DC
:100E60004161206C08B9A06C20B12068016821F0B4
:100E7000080101602068016821F0010101600CE0B7
:100E800000F078FA801B052807D920206065032030
:100E900084F8350084F83450D7E720680068C0072C
:100EA000EED194F85C103F208840B860012084F8AF
:100EB000350084F834500020C7E790F83510022937
:100EC00003D08021416501207047052180F835104D
:100ED0000068016821F001010160002070470000F6
:100EE0002DE9F84304464FF00009CDF8009063481F
:100EF0004FF41651A56D0068B0FBF1F72E6894F819
:100F00005C10082000FA01F131420FD021680A6814
:100F100052070BD50A6822F004020A6094F85C10AC
:100F20008840A860606D40F00100606594F85C1036
:100F30004FF0010808FA01F0304208D021684969F1
:100F4000090604D5A860606D40F00200606594F861
:100F50005C1004208840304208D021680968890765
:100F600004D5A860606D40F00400606594F85C10E2
:100F700010208840304218D021680968090714D52C
:100F8000A86020680168490304D50068000308D5FB
:100F9000A16C07E00168C90503D4016821F00801CC
:100FA0000160216C09B12046884794F85C1020202C
:100FB0008840304231D021680968C9062DD5A86023
:100FC00094F8350005282068016806D0490347D504
:100FD000006800031DD4616C1CE021F01601016063
:100FE0002068416921F080014161206C08B9A06C42
:100FF00020B12068016821F00801016094F85C10BC
:101000003F208840A86084F8358084F83490216DB2
:101010001FE0E16B09B120468847606D00282BD0A6
:10102000606DC00714D0052084F835002068016881
:1010300021F0010101600098401C0090B84203D8E3
:1010400020680068C007F6D184F8358084F83490B1
:10105000E16C002910D001B02046BDE8F0430847FC
:101060000168C905D5D4016821F01001016084F838
:10107000358084F83490CCE7BDE8F8834000002048
:101080002DE9F041044600F075F906465CB10220F6
:1010900084F83500002584F834502068016821F078
:1010A000010101600DE00120BDE8F08100F062F96E
:1010B000801B052805D920206065032084F83500B1
:1010C000F2E720680068C007F0D122681168204864
:1010D0000140D4E901031843D4E9033633431843EC
:1010E00063691843A3691843E3691843236A1843E3
:1010F0000843616A042903D1D4E90B131943084357
:10110000106020684069666A20F0070130460E438F
:10111000012704280CD1A06A0643E06A40B12046AA
:10112000FFF7CCFC20B14020606584F83570BAE749
:10113000206846612046FFF7ADFC94F85C203F2113
:1011400091408160656584F835700020ACE700004F
:101150003F8010F070B5044600F00CF90546601CA5
:1011600002D004480078044400F004F9401BA04277
:10117000FAD370BD340000202DE9F84FDFF8BCA190
:10118000002201250AF1040B03264FF00F090BF191
:10119000040E00BF0B6805FA02F42340A34270D18D
:1011A0000F7907F00307012F01D0022F16D18768AE
:1011B0004FEA420806FA08FC27EA0C07D1F80CC0EF
:1011C0000CFA08FC4CEA070CC0F808C04768A743B3
:1011D0000C79C4F3001494403C4344600C79E4431C
:1011E000A4070AD0C4684FEA420C06FA0CF7BC43C5
:1011F0008F6807FA0CF72743C7600C7904F00304E3
:10120000022C12D1D40800EB840CDCF820405707E4
:10121000FF0E09FA07F824EA0804D1F8108008FA4A
:1012200007F848EA0408CCF8208004684FEA420C2A
:1012300006FA0CF7BC430F7907F0030707FA0CF71F
:10124000274307604C6814F4403F70D03C4C27683B
:1012500047F480472760246822F0030704F48044A1
:101260000094384C07EB040CDCF8084897074FEA69
:10127000177809FA08F7BC43334FB84202D1002768
:1012800024E054E0314FB84201D101271EE0304F35
:10129000B84201D1022719E02E4FB84201D10327ED
:1012A00014E02D4FB84201D104270FE02B4FB84274
:1012B00001D105270AE02A4FB84201D1062705E0EF
:1012C000284FB84201D1072700E0082707FA08F79E
:1012D0002743CCF80878DAF800405746D1F804C024
:1012E0009C435FEACC3C00D51C433C60DBF80040EB
:1012F0005F46D1F804C09C435FEA8C3C00D51C4398
:101300003C60DEF800407746D1F804C09C435FEAB9
:10131000CC2C00D51C433C60084F0C373C68D1F8FE
:1013200004C09C435FEA8C2C00D51C433C60521CDB
:10133000102AFFF42FAFBDE8F88F0000003C0140F9
:1013400044380240003001400000024000040240E6
:1013500000080240000C024000100240001402404D
:1013600000180240001C02400AB181617047090464
:10137000FBE700000148806870470000340000204F
:1013800070B5040025D094F83D00002520B984F8FC
:101390003C50204600F03EFA242084F83D002068AE
:1013A000016821F0010101602068016841F40041F9
:1013B00001602068016821F40041016001F02AF910
:1013C0004D4A6168914201D84C4900E04C4988423D
:1013D00001D2012070BD4B492368B0FBF1F15E687A
:1013E00026F03F060E435E606368934206D94FF4D1
:1013F000967359434FF47A73B1FBF3F12368491C98
:101400001E6A26F03F06314319626168914210D886
:101410004900401EB0FBF1F2521CC2F30B02042A39
:1014200001D2042022E0B0FBF1F0401CC0F30B001D
:101430001CE0A268F2B301EBC10303EB0116431EEB
:10144000B3FBF6F35B1C43F480431B0549D092B316
:1014500001EBC10202EB0111401EB0FBF1F0401C98
:10146000C0F30B0040F4804040F400402168CA699A
:101470004CF6FF739A431043C861D4E90710014347
:101480002068026822F0C00211430160D4E9030120
:1014900001432068826848F2FF339A431143816018
:1014A000D4E9050108432168CA6822F0FF0210430D
:1014B000C86001E00EE016E02068016841F001011B
:1014C00001602564202084F83D00256384F83E50A7
:1014D000002070BD01EB4106431EB3FBF6F35B1C1D
:1014E000B3E70120C2E701EB4101401EB0FBF1F080
:1014F000401CC0F30B00B7E7A086010080841E00EB
:1015000000093D0040420F002DE9F84F1F4690466C
:101510008A460446DDF82890FFF72CFF054694F82C
:101520003D00202875D1192301226C4920460095E1
:1015300002F04AF90028F5D194F83C00012868D05F
:10154000012084F83C0020680168C90703D10168C4
:1015500041F0010101602068016821F4006101602F
:10156000222084F83D00102084F83E0000262664E6
:10157000C4F824806785608D20855948E0622B4639
:101580004A465146204602F035F8002878D1208D91
:10159000544F68B1012814D002282068016816D081
:1015A00041F480610160206841698069009087E0B2
:1015B0002068416981690091016841F4007101600E
:1015C0007EE02068016821F480610160F0E721F489
:1015D000806101602068016841F40061E2E703284E
:1015E00048D801280AD0022814D04B460022394698
:1015F0002046009502F0E8F8D8BB27E02A46494685
:10160000204602F060F9A0BB20680069616A08709A
:101610004DE061E04B46002239462046009502F03D
:10162000D3F830BB2068016841F400710160206884
:101630000069616A0870606A401C6062218D491E01
:101640002185618D491E618521682EE02068016831
:1016500021F48061016020680069616A0870606A35
:10166000401C6062208D401E2085608D401E60857C
:10167000D0E705E02A464946204602F024F910B199
:101680000120BDE8F88F20680069616A0870606A0F
:10169000401C6062218D491E2185618D491E618536
:1016A00021684A69D24352070AD409690170606A05
:1016B000401C6062208D401E2085608D401E60852C
:1016C000208D00288BD1202084F83D0084F83E60D6
:1016D00084F83C600020D4E70220D2E7020010002A
:1016E0000000FFFF040001002DE9F84F1F4690465F
:1016F0008A460446DDF82890FFF73CFE054694F83C
:101700003D0020287FD11923012240492046009521
:1017100002F05AF8002876D194F83C00012872D0E3
:10172000012084F83C0020680168C90703D10168E2
:1017300041F0010101602068016821F4006101604D
:10174000212084F83D00102084F83E000026266405
:10175000C4F824806785608D20852D48E0622B4683
:101760004A465146204601F0BBFF90B920684169C6
:101770008069009036E02A464946204602F0D6F8B5
:1017800050B1206C042804D12068016841F4007134
:1017900001600120BDE8F88F606A21680078086167
:1017A000606A401C6062618D491E6185218D491E01
:1017B00089B2218522685369DB435B070BD451B1A1
:1017C00000781061606A401C6062608D401E608518
:1017D000208D401E20852A464946204601F0CEFF36
:1017E0000028CED1208D0028C5D154F83D0B0168CA
:1017F00041F400710160202004F81E09E677667745
:101800000020C7E7FFE70220C4E700000200100045
:101810000000FFFFF0B587B0044614216846FEF7CC
:1018200079FD2668204C1F4F00251F4812220321F6
:1018300004231034BE4218D1066846F00206066042
:10184000006800F002000590CDE90313C0208DE888
:10185000250069461548FFF78FFC206840F400100A
:101860002060206800F4001019E0114FBE4217D12B
:10187000066846F020060660006800F0200005902B
:101880008DE82600CDE9031369460A48FFF774FC8A
:10189000206840F480002060206800F480000590FB
:1018A00007B0F0BD00540040303802400004024050
:1018B0000058004000140240024881680278114438
:1018C00081607047340000200B4810B5016841F476
:1018D00000710160016841F480610160016841F4B8
:1018E00080710160032000F08DF80F2000F006F8F1
:1018F00000F03EF8002010BD003C024010B501464B
:1019000088B00022192000F05DF8192000F04CF892
:1019100013480024016841F001010160006805A935
:1019200000F001000690684600F04EFE00F082FED6
:101930000C494000B0FBF1F10C480B4A491E026013
:1019400040F2E732C0E90324C0E9011401F01FFAB4
:1019500010B1012008B010BD044801F047FAF9E7C2
:101960004438024040420F0000000140640B002058
:101970000C4882B0016841F480410160006800F4C5
:10198000804000900748001F016841F080510160CD
:101990000068002200F0805000900F21901E02B0DD
:1019A00000F010B844380240002809DB00F01F02A4
:1019B000012191404009800000F1E020C0F80011B1
:1019C00070470000F0B40E4B1B680C46C3F30223B3
:1019D000C3F10705042D00D90425191D072901D2DB
:1019E000002300E0DB1E012606FA05F1491E214016
:1019F00099409E40761E16403143F0BC05F048B930
:101A00000CED00E0064900F0070208684FF6FF03FE
:101A1000184040EA0220034A104308607047000063
:101A20000CED00E00000FA057047006841620020FC
:101A30007047F0B50368586A39B19C6A4FF48276F2
:101A400000EB144400204D1E0AE040EA0240986278
:101A50000FE006EB8007DF59401C04EB1744C0B2CF
:101A6000A842F6D344EA02404FF4807202EB8101AF
:101A700058500020F0BDD0F8040404F002B8C1EBC7
:101A8000C10200EB8202D0F80404926C03F063BF41
:101A9000C1EBC10200EB8202D0F80404D2F80822A4
:101AA00003F0B7BFD0F8040403F0EDBF70B50446EF
:101AB0000B0601F00F00C0EBC00104EB81014FF0F9
:101AC00001024FF0000503D581F83D203C3103E0D1
:101AD00081F8FD5101F5FE71087094F8BC030128EE
:101AE00008D084F8BC23206804F0F4FB84F8BC53CD
:101AF000002070BD022070BD70B5044601F00F00DB
:101B00006268904201D9012070BD0B0601F00F01FF
:101B1000C1EBC10104EB81014FF001024FF0000560
:101B200003D581F83D203C3103E081F8FD5101F5FA
:101B3000FE718D70087094F8BC03012808D084F8F9
:101B4000BC23206804F0C0FD84F8BC53002070BDA5
:101B5000022070BD01F00F01C1EBC10100EB81005B
:101B6000D0F8140270472DE9F04104460F0601F049
:101B70000F00C0EBC00104EB81014FF001064FF0F4
:101B8000000503D581F83D603C3103E081F8FD514B
:101B900001F5FE7108708A60CB704A7802B1C88086
:101BA000022B00D10D7194F8BC03012809D084F8F0
:101BB000BC63206804F0E6FA284684F8BC53BDE80C
:101BC000F0810220FBE770B50C4601F00F05C5EB74
:101BD000C50100EB8101C1F81032C1F808220023D1
:101BE000C1F8143281F8FD3181F8FC51036901F527
:101BF000FE71012B00D10A612207027C006803D02C
:101C000004F0BAFD002070BD04F0A6FCFAE770B540
:101C100004460D4601F00F006168884201D9012099
:101C200070BD29064FF000064FF0010207D5C0EB4A
:101C3000C00104EB810181F83D203C3107E0C5EB98
:101C4000C50104EB810181F8FD6101F5FE718A7027
:101C5000087094F8BC03012807D084F8BC232068DE
:101C600004F05EFD280702D007E0022070BD217C51
:101C700004F57172206804F0FBFC84F8BC6300205A
:101C800070BD70B50C4601F00F05C5EBC50100EB4A
:101C900081010B658A6400234B65012381F83D3087
:101CA00001F83C5F0369012B00D10A612207027C25
:101CB000006803D004F060FD002070BD04F04CFC0F
:101CC000FAE700002DE9FC5F05680446284604F0A9
:101CD00084FE00287ED1206804F0ABFE002879D075
:101CE000206804F0A6FE800704D52168486900F04A
:101CF00002004861206804F09CFEC10604F5717082
:101D0000009034D52068816921F0100181612F6A2B
:101D100007F00F00C0EBC00004EB8006C7F34340A0
:101D200006F5FE76022802D0062811D01AE047F602
:101D3000F070074216D0C7F30A1217462846F1681A
:101D400004F07BFEF0683844F060B069384408E085
:101D500008222846009904F070FEB069C7F30A1102
:101D60000844B0612068816941F0100181612068F8
:101D700004F05FFE00034FF0010A4FF0080B5BD543
:101D80000026206804F034FE0746DFF8689351E02F
:101D9000F8074DD0F1B2206804F043FE8046C0073A
:101DA00007D005EB4611C1F808AB3146204602F0DA
:101DB0006FFE5FEA087022D505EB4611C1F808BB3B
:101DC0002068016C00EB46100191D0F8082B4945C2
:101DD00007D900E08BE1110403D54FF40041C0F8AE
:101DE000081B204600F077FA0198484507D920697A
:101DF000012804D120680121009A04F039FC5FEA2F
:101E0000C86004D505EB46111020C1F8080B5FEA45
:101E1000886004D505EB46112020C1F8080B5FEA65
:101E2000884005D505EB46104FF40051C0F8081B5B
:101E30007F08761C002FABD1206804F0FAFD400328
:101E40004FF000095CD5206804F0CBFD0746002662
:101E500054E0F80750D0F1B2206804F0D0FD80467D
:101E6000C00723D006F00F020AFA02F0D5F8342892
:101E70008243C5F8342805EB4610C0F808A920694C
:101E800001280FD1C6EBC60004EB8000D0E9112178
:101E90001144816436B9206D20B920680121009A6F
:101EA00004F0E6FBF1B22046FFF7E9FD5FEA0870B7
:101EB00003D505EB4611C1F808B95FEAC86004D53F
:101EC00005EB46111020C1F808095FEA486004D507
:101ED00005EB46114020C1F808095FEA887004D577
:101EE00005EB46110220C1F808095FEA086003D536
:101EF0003146204602F032FE7F08761C002FA8D122
:101F0000206804F096FD002811DAD5F8040820F0C6
:101F10000100C5F8040894F8F403012829D02046EC
:101F200000F0BDF92068416901F00041416120687D
:101F300004F07FFD00050BD5D5F80808C00702D0D6
:101F4000204600F0F1F92068416901F40061416127
:101F5000206804F06EFDC00468D5D5F8040820F0B0
:101F60000100C5F804081021206804F013FD0021C9
:101F700027E084F8F49300212046FFF755FDD1E7D0
:101F800005EB41104FF67F32C0F80829D0F8003930
:101F900023F40013C0F80039D0F8003943F000638F
:101FA000C0F80039C0F8082BD0F8002B22F400123A
:101FB000C0F8002BD0F8002B42F00062C0F8002BD4
:101FC000491C60688842DBD8D5F81C0840F0011035
:101FD000C5F81C08206B60B1D5F8840840F00B00F0
:101FE000C5F88408D5F8440840F00B00C5F844084B
:101FF0000CE0D5F8141842F22B000143C5F8141870
:10200000D5F8100840F00B00C5F81008D5F8000806
:1020100020F4FE60C5F80008217C2068009A04F0D6
:1020200027FB2068416901F480514161206804F078
:1020300000FD800415D5206804F0E4F8206804F061
:10204000BFFCE06000F0E0FA0146227B206804F06B
:1020500053FD204600F00CF92068416901F400515D
:102060004161206804F0E5FC000707D5204600F038
:102070001AF92068416901F008014161206804F003
:10208000D8FCC00208D50021204600F035F82068B1
:10209000416901F480114161206804F0CAFC8002AA
:1020A00008D50021204600F02BF82068416901F492
:1020B00000114161206804F0BCFC400007D52046B7
:1020C000FFF7D9FC2068416901F080414161206837
:1020D00004F0AFFC40070AD520684568680702D5C0
:1020E0002046FFF7DFFC2068416829434160BDE8D6
:1020F000FC9F00000A30544FD0F8040403F015BDD3
:10210000D0F8040403F022BD2DE9F0418AB00400A8
:1021100005D094F8BD032668002520B108E0012011
:102120000AB0BDE8F08184F8BC53204600F05EF8A8
:10213000032084F8BD03F06BC00500D4256120683E
:1021400004F004FA04F11001282288466846FEF7DC
:10215000C8F894E80F0004F063F80226C8BB002119
:10216000206804F089FC002001270EE0C0EBC001CC
:1021700004EB810181F83D7001F83C0FC880CD70FF
:102180008D60CD60401CC0B24D6161688142EDD868
:10219000002011E0C0EBC00104EB810181F8FD518A
:1021A00081F8FC0181F8FF51C1F80452C1F80852CE
:1021B000401CC0B2C1F8105261688142EAD828229E
:1021C00041466846FEF78DF894E80F0004F004F9E4
:1021D00010B184F8BD63A2E784F8385084F8BD7369
:1021E000206804F0EBF800209AE7000000B587B003
:1021F0000021029103910491059106910068B0F1CC
:10220000A04F2BD11648016841F001010160006820
:1022100000F0010001904FF4C050029002200390A2
:10222000032005900A20069002A90E48FEF7A4FF9D
:102230000D48016841F0800101600C48016841F4DB
:1022400080410160006800F4804001900022052177
:102250004320FFF7B7FB4320FFF7A6FB07B000BD05
:102260003038024000000240343802404438024016
:1022700070B504460125E06800280ED0022801D080
:10228000FEF7B4FD2946D4F8040403F0CEFCD4F8DC
:102290000404BDE8704003F07FBC0025F2E7D0F8ED
:1022A000040403F0A7BCD0F8040403F0ADBC10B5DF
:1022B000044690F8BC0301280BD0012084F8BC032D
:1022C00084F83810206804F005FC002084F8BC0372
:1022D00010BD022010BDD0F8042400F57171104625
:1022E00003F0AFBC10B50446006894F8BC13012994
:1022F00006D0012184F8BC13A16A012902D008E0AC
:10230000022010BDA169012903D0816B41F4803105
:102310008163206804F024FB206804F041F8002069
:1023200084F8BC0310BD000010B50446D4F80404C2
:1023300003F0CBFC2068D0F8001E41F00101C0F88A
:10234000001E206A002804D00248016841F00601FE
:10235000016010BD10ED00E02DE9F843054600686E
:102360004FF00109C1074FF0000601D1400727D502
:10237000DFF80C81C8F86860FEF7FCFF0746414CA7
:1023800005E000BFFEF7F6FFC01B022857D8206803
:102390000001F7D468688101287A41EA0070394960
:1023A00084310860C8F86890FEF7E4FF074604E04F
:1023B000FEF7E0FFC01B022841D820680001F7D5D6
:1023C0002878800752D52F484030016841F080516D
:1023D000016000682C4C00F080500090206840F4B0
:1023E00080702060FEF7C6FF074604E0FEF7C2FFDC
:1023F000C01B022823D82068C005F7D5214C7034B3
:10240000206810F4407020D0A98901F44071814205
:102410001BD020681D4920F44070C1F800900E6068
:1024200020602068C00710D0FEF7A4FF064641F2E6
:10243000883707E0FEF79EFF801BB84202D90320D1
:10244000BDE8F88320688007F4D5E9680D48C1F33A
:1024500001220830032A0BD0016821F4F811016031
:102460002068A989C1F30B01084320600020E7E739
:102470000268074B22F4F81219400A430260EFE7A2
:10248000000047420038024000700040400E4742C2
:10249000FFFCFF0F2DE9F0470E46050065D0DFF881
:1024A0001481D8F80000F7B200F00700B04207D25C
:1024B00088F80070D8F8000000F00700B04254D14E
:1024C00028683D4C810712D5400703D5206840F4A9
:1024D000E05020602878000703D5206840F4604071
:1024E00020602068A96820F0F00008432060287868
:1024F000C0072DD0304968680839012812D0022859
:1025000013D0032811D00968890700292DDA216822
:1025100021F0030101432160FEF72CFF814641F2C7
:10252000883A0EE009688903EFE709688901ECE75A
:10253000FEF720FFA0EB0901514502D90320BDE8B9
:10254000F0872068696800F00C00B0EB810FEFD1D4
:10255000D8F80010404601F00701B14207D90770D2
:10256000006800F00700B04201D00120E7E72878BA
:10257000400705D52068E96820F4E0500843206052
:102580002878000706D52068296920F4604040EAD1
:10259000C100206000F05EF82168084AC1F3031111
:1025A000515CC8400649086006480068FFF7A6F974
:1025B0000020C4E7003C024008380240F0930008C5
:1025C00040000020380000200F2202600C4A1368EF
:1025D00003F003034360136803F0F00383601368A0
:1025E00003F4E053C36012684FF4E05303EAD202ED
:1025F00002610448006800F00700086070470000AE
:1026000008380240003C0240014800687047000062
:10261000400000200448054900680968044AC1F3E5
:102620008221515CC84070474000002008380240B9
:10263000009400080448054900680968044AC1F389
:102640004231515CC84070474000002008380240C9
:1026500000940008154810B5006810F00C021448EA
:1026600013D04110042A0FD0082A0ED10F4C241F7A
:102670002268236802F03F025B0207D52068C0F39E
:102680008810A0FB010106E0084610BD2168C1F3D7
:102690008811A1FB00010023FDF7F2FD2168C1F3C1
:1026A0000141491C4900B0FBF1F010BD083802405F
:1026B0000024F4002DE9F84F04006ED02078DFF8F4
:1026C0004C93C007A9F104054AD009F10400016840
:1026D000C1F38101012908D00068C0F381000228FC
:1026E0000AD1D9F80000400206D52868800337D502
:1026F00060680028E1D033E06068B0F5803F10D01A
:10270000B0F5A02F286810D020F480302860286809
:1027100020F4802028606068A8B1FEF72BFE0646F2
:102720000DE0286840F48030F4E740F48020286011
:10273000F7E700BFFEF71EFE801B642873D82868E9
:102740008003F7D50CE0FEF715FE064605E000BF56
:10275000FEF710FE801B6428F0D828688003F7D4A9
:102760002078DFF8AC8280074FF0000A3ED5A748FA
:10277000001D016811F00C0F08D00068C0F3810043
:1027800002280BD1D9F80000400207D4286880073E
:1027900016D5E068012800D112E033E1E068B8B155
:1027A0000120C8F80000FEF7E5FD064605E000BF81
:1027B000FEF7E0FD801B0228C0D828688007F7D507
:1027C0002868216920F0F80040EAC10028600DE087
:1027D000C8F800A0FEF7CEFD064604E0FEF7CAFDED
:1027E000801B02281FD828688007F7D420780007AC
:1027F00022D5864F87486169703771B10121016028
:10280000FEF7B8FD064604E0FEF7B4FD801B022883
:1028100009D838688007F7D50EE0C0F800A0FEF7A9
:10282000A9FD064605E082E0FEF7A4FD801B022814
:102830007DD838688007F7D42078400768D5DFF85E
:10284000CCB100270BF13C0BDBF80000C0000BD42F
:10285000DBF8001041F08051CBF80010DBF80000ED
:10286000012700F0805000906B4E3068C00510D4F6
:10287000306840F480703060FEF77CFD009005E029
:10288000FEF778FD0099401A022850D83068C0053C
:10289000F6D55E4EA0686C3601280FD0052830684A
:1028A00010D020F001003060306820F0040030606B
:1028B000A068B8B1FEF75EFD00900FE0306840F010
:1028C0000100F4E740F004003060F7E7FEF752FD46
:1028D0000099411A41F28830814266D830688007F9
:1028E000F4D50EE0FEF746FD009007E0FEF742FD4E
:1028F0000099411A41F28830814256D830688007E9
:10290000F4D42FB1DBF8001021F08051CBF8001087
:10291000A069C8B33D49091D0968C1F381010229B5
:102920004AD00228504607D0C8F8600000E03CE0DA
:10293000FEF720FD04463BE04746C8F86000FEF77E
:1029400019FD064605E000BFFEF714FD801B0228B6
:102950002BD828688001F7D4D4E907010843A16A7D
:102960002E4A490802EB0141626A41EA821108439A
:1029700094F82C1040EA0161C9F800100120386673
:10298000FEF7F8FC044606E03EE000BFFEF7F2FC6E
:10299000001B022809D828688001F7D534E000BF61
:1029A000FEF7E8FC001B022802D90320BDE8F88FDF
:1029B00028688001F4D427E00128F7D0D9F8000076
:1029C000E26900F4800191421CD1226A00F03F01CB
:1029D000914217D147F6C071626A0140B1EB821F84
:1029E00010D1A26A4FF0FF3300F4403103EB5202E2
:1029F000B1EB024F06D194F82C1000F07060B0EBF0
:102A0000016F01D00120D1E70020CFE70438024058
:102A100000004742800E4742007000400000FFFF68
:102A200010B500680B4641680D480140080CD8708D
:102A3000C1F304245C7001F03F049C70C1F3423187
:102A4000197052B902F0DBF8D870587802F0D7F854
:102A50005870987802F0D3F89870002010BD0000EC
:102A60003FFFFF0010B50B460168896A5960016895
:102A70000969C1F30E019960006801680E480140C0
:102A8000C1F305401870C1F306245C7001F07F04A7
:102A90009C70402404EA1141D97052B902F0AFF899
:102AA0001870587802F0ABF85870987802F0A7F8D0
:102AB0009870002010BD00007F7F7F0070B504007B
:102AC00002D0607F10B106E0012070BD00202077A9
:102AD000204600F049F8022060772168CA20486249
:102AE000216853204862204602F09EF8FF25042604
:102AF00018BB206881681B4A114081602168886882
:102B000062681043D4E904231A43104388602168A3
:102B1000E068086120680169228941EA0241016197
:102B20002068C16821F08001C1602068806880064B
:102B300007D4204600F00EF918B120684562667788
:102B4000C2E72068016C21F4802101642068016CD7
:102B5000A26911430164206845620120607700206A
:102B600070BD0000BFFF8FFF1FB5002100910191D4
:102B7000029103910068084988420CD1022000901C
:102B8000C00103906846FFF7E7FB08B1FEF72EF996
:102B90000249012008601FBD002800403C0E47424A
:102BA0002DE9F0470446007F0B4601281FD04FF067
:102BB000010984F81C9002206077DAB19878D978FE
:102BC00040EA014558781978000240EA413005434F
:102BD0002168CA204862216853204862204602F0DA
:102BE00023F80026FF274FF0040860BB1AE00220FC
:102BF000BDE8F0875878C10603D500F0EF000A3031
:102C00005870D87802F004F80204587802F000F8FE
:102C100042EA0022987801F0FBFF0243187842EA6A
:102C20004035D5E70F480540206845602068C168F9
:102C300021F08001C1602068806880060AD42046A7
:102C400000F088F830B12068476284F81D8026774C
:102C50000120CDE72068476284F81D902677002088
:102C6000C6E700003FFFFF002DE9F0470446007F64
:102C70000D46012827D04FF0010A84F81CA002203D
:102C800060772068002680684FEA4060F2B1002833
:102C900000DBEE70A878297840EA01476878E97887
:102CA000000240EA014007432168CA2048622168C7
:102CB00053204862204601F0B7FF4FF0FF084FF065
:102CC0000409A0BB16E00220BDE8F087002800DB65
:102CD000EE70287801F09CFF0204687801F098FFFC
:102CE00042EA0022A87801F093FF0243E87842EA22
:102CF0000047D9E7164807402068076020688168C8
:102D000021F480218160D5E90301084321688A68A4
:102D1000104388602068C16821F08001C16020688C
:102D2000806880060BD4204600F014F838B1216882
:102D3000C1F8248084F81D9026770120C4E721681B
:102D4000C1F8248084F81DA026770020BCE700008D
:102D50007F7F7F0070B504460068C16821F0A00144
:102D6000C160FEF707FB05464FF47A7607E000BF27
:102D7000FEF700FB401BB04201D9032070BD206864
:102D8000C0688006F4D5002070BD7047704710B54C
:102D9000040003D094F83D0010B107E0012010BDFD
:102DA000002084F83C00204600F01EF8022084F841
:102DB0003D00211D206801F0C7FF012084F8460076
:102DC00084F83E0084F83F0084F8400084F8410015
:102DD00084F8420084F8430084F8440084F84500F5
:102DE00084F83D00002010BD7047000090F83D10B1
:102DF000012901D001207047022180F83D100168AF
:102E0000CA6842F00102CA6000681149884214D0C1
:102E1000B0F1804F11D00F4988420ED00E49884240
:102E20000BD00E49884208D00D49884205D00D4983
:102E3000884202D00C49884204D1816801F0070120
:102E4000062903D0016841F00101016000207047AC
:102E5000000001400004004000080040000C004059
:102E6000000401400040014000180040704770B568
:102E70000446006801694FF00005C943890715D46D
:102E8000C168C943890711D4E91E01610120207777
:102E9000206880698007204602D0FFF7E7FF04E042
:102EA00000F098F8204600F096F825772068016930
:102EB000C943490717D4C168C943490713D46FF000
:102EC00004010161022020772068806910F4407FAE
:102ED000204602D0FFF7CAFF04E000F07BF820464E
:102EE00000F079F8257720680169C943090716D4ED
:102EF000C168C943090712D46FF0080101610420B9
:102F000020772068C0698007204602D0FFF7AEFF17
:102F100004E000F05FF8204600F05DF825772068B7
:102F20000169C943C90617D4C168C943C90613D486
:102F30006FF010010161082020772068C06910F44B
:102F4000407F204602D0FFF791FF04E000F042F8F6
:102F5000204600F040F8257720680169C943C90779
:102F600008D1C168C943C90704D1891E016120463F
:102F700000F032F820680169C943090609D4C16824
:102F8000C943090605D46FF0800101612046FFF7AF
:102F9000FCFE20680169C943490609D4C168C943D8
:102FA000490605D46FF040010161204600F01EF88B
:102FB00020680169C94389060BD4C168C9438906E1
:102FC00007D46FF0200101612046BDE87040FFF793
:102FD000DDBE70BD7047704700680349884201D16B
:102FE000FEF76ABC70470000000001407047704760
:102FF00070470000F8B5016804460868CA684B6964
:1030000010F00F0F4FF0000559D003F0010602F445
:103010009077374365D0C10705D0D10503D5216C22
:1030200041F001012164410705D5D90703D0216C86
:1030300041F002012164810705D5D90703D0216C35
:1030400041F004012164010707D502F0200131435A
:1030500003D0216C41F008012164216C00293AD091
:10306000800604D5900602D5204601F000FF2068B6
:103070004069216CC0F38010090700D460B320467A
:1030800001F0CEFE20684069400621D5206814304A
:1030900050E8001F21F0400140E80012002AF5D15D
:1030A000A06BA8B16C490165A06BFDF706FF002875
:1030B00011D0A06B016D01B0BDE8F0400847830658
:1030C0000FD593060DD52046BDE8F84001F0CFBEE0
:1030D0002046FFF78DFFF8BD2046FFF789FF2564E6
:1030E000F8BD266B2023012E79D1C60677D5D606EA
:1030F00075D50868486800904869400640D5A16BBE
:10310000086840680004000CEAD0A28D8242E7D92A
:10311000E085C869B0F5807F2DD020680C3050E87C
:10312000001F21F4807140E80012002AF5D12068C8
:10313000143050E8001F21F0010140E80012002A7D
:10314000F5D12068143050E8001F21F0400140E81C
:103150000012002AF5D184F83E30256320680C3037
:1031600050E8001F21F0100140E80012002AF5D1BC
:10317000A06BFDF759FEA08DE18D401A81B229E0C8
:10318000A08DE18D401A81B2E08D0028A8D00029E1
:10319000A6D020680C3050E8002F22F4907240E84E
:1031A0000026002EF5D12068143050E8002F22F0C0
:1031B000010240E80026002EF5D184F83E30256358
:1031C00020680C3050E8002F22F0100240E8002365
:1031D000002BF5D12046FFF70AFFF8BDFFE70506F3
:1031E0002BD5150629D594F83D002128F5D1A068E6
:1031F000B0F5805F01D12069B0B1206A411C216225
:10320000216800784860E08C401E0004000CE084D7
:10321000E3D12068C16821F08001C1602068C168E5
:1032200041F04001C160D8E7206A0088C0F308007F
:103230004860206A801C2062E5E74006CDD5500634
:10324000CBD5CA68204622F04002CA6084F83D30DF
:1032500000F04FF9C1E70000114E000870B50400FE
:1032600004D094F83D00002510B106E0012070BDA7
:1032700084F83C50204600F023F8242084F83D00D8
:103280002068C16821F40051C160204601F050FE61
:103290002068016921F4904101612068416921F0B1
:1032A0002A0141612068C16841F40051C160256470
:1032B000202084F83D0084F83E00002070BD00000E
:1032C0002DE9F04186B0064614216846FDF722F844
:1032D0004F49D6F800C04F480222032307254E4F1E
:1032E00000248C451DD14B4914310E6846F0100660
:1032F0000E60096801F010010591016841F00101BB
:1033000001600068694600F00100059058028DE8F0
:103310001500CDE903353846FDF72EFF06B0BDE8B0
:10332000F0813C49DFF8F4801031C44521D10E68AA
:1033300046F400360E60096801F400310591016819
:1033400041F0010101600068694600F0010005904C
:103350000C208DE81500CDE903353846FDF70CFF4C
:10336000002205212620FEF72DFB2620FEF71CFB60
:10337000D4E72B4FBC45D1D10F6847F480270F60AD
:10338000096801F480210591016841F002010160A2
:103390000068694600F0020005904FF440608DE837
:1033A0001500CDE903351F48FDF7E6FE1F4D1E4809
:1033B0004FF000672860C5E901744FF48068C5E9E3
:1033C00003486C61AC61EC612C6228466C62FDF7CD
:1033D00057FE08B1FDF70AFDB563AE63134D124801
:1033E00060353030E5E802074020A5E811010F48BC
:1033F00045F814496030AC61EC612C626C62FDF7F9
:103400003FFE08B1FDF7F2FC7563AE6386E700008E
:1034100000100140303802400000024000440040EB
:10342000004800400004024028600240900A00204A
:103430002DE9F84F044690F83E009A4616460D4690
:10344000202853D1FDB1F6B194F83C0001284DD0AD
:10345000012084F83C0000272764222084F83E00E5
:103460002763FDF787FFA6858146E685A0684FF4B0
:103470008058404501D1206940B12E465FF00005DB
:1034800084F83C7027E00120BDE8F88F0026F7E7BC
:103490004B46002220212046CDF800A001F0CEFDB1
:1034A00008B10320F0E726B1A06840451BD038B131
:1034B00008E020684068C0F3080025F8020B07E028
:1034C000206980B12068406800F07F0006F8010B99
:1034D000E08D401EE085E08D0028D9D1202084F8C1
:1034E0003E000020D0E720684068EFE70220CBE7ED
:1034F00070477047024A0121117000F045B8000082
:103500000000002010B501684A68D243920507D434
:103510008A68D243D20703D1921E8A60FFF7EAFF7E
:1035200010BD10B504000FD000F010F8E06821685D
:1035300040F080000860616820690843A168084382
:1035400021684860002010BD012010BD08B500684A
:103550000B49884212D10B48016841F400610160B7
:103560000068002200F40060009005211046FEF77C
:1035700029FABDE808400020FEF716BA08BD000091
:10358000002C004040380240C16800680160002003
:103590007047FEE708B5012200920B46024647211C
:1035A0000148FDF7B1FF08BDFC08002008B5012265
:1035B00000920B46024646210148FEF795F808BDE9
:1035C000FC08002001684A69D24352050FD46FF409
:1035D00080624A61002140F8301F202242738173CB
:1035E000026942F004020261017301207047002069
:1035F000704700002DE9F84F0446C06A1E46934606
:103600000D4621680A6842F480620A60082807D0E3
:10361000012805D010F5803F02D0206B112804D17D
:103620002068016841F4807101604FF001195B4628
:10363000002249462046009600F0C6F84FF4007874
:1036400040B120680068C00501D5C4F8408003205F
:10365000BDE8F88F2069DFF884A0B0F5804F0FD067
:103660000620216800EAD51747F0F00008613346CC
:103670005A460AF10601204600F0DAF858BB03E08A
:10368000E8B240F001001CE02168E8B2086133466E
:103690005A465146204600F0CBF8E0B9206841690F
:1036A00081690091016841F4807101605B460022EC
:1036B00049462046009600F087F80028C1D147F01F
:1036C000F1002168086133465A465146204600F011
:1036D000AFF80028BCD00120BAE7000002000100CA
:1036E000F8B50446C06A1E460D461746082807D09E
:1036F000012805D010F5803F02D0206B122804D19C
:103700002068016841F480710160134600224FF087
:1037100001112046009600F057F840B1206800687B
:10372000C00502D54FF4007020640320F8BD206965
:10373000B0F5804F0ED00620216800EAD51040F089
:10374000F000086133463A460B49204600F070F815
:1037500078B902E005F0FE0000E0E8B221680861F7
:10376000054933463A46891F204600F061F8002893
:10377000DCD00120F8BD00000800010070B516463D
:103780000D4604460DE02046FFF71CFF08B101205E
:1037900070BD681C05D0FDF7EDFD801BA84207D861
:1037A00035B120684069C0434007ECD4002070BDAB
:1037B000002044F8300F20216173A073216941F08B
:1037C000200121612073E2E72DE9F0471E46904673
:1037D0000D460446C1F30747DDF8209008E0701C51
:1037E00006D0FDF7C7FDA0EB0900B0420FD876B1B7
:1037F0002068012F18D0806925EA00000004000C21
:1038000014D000214145EAD00020BDE8F087002017
:1038100044F8300F20216173A073216941F0200129
:10382000216120730120F0E74069E5E70121E9E724
:103830002DE9F0479A4691460E46044600254FF082
:103840002008C1F3074725E020684069C0434005D0
:1038500014D42068016841F40071016021686FF49C
:1038600080604861256384F83D8084F83E50206C78
:1038700040F00400206484F83C501FE0B9F1FF3FA1
:1038800008D0FDF777FDA0EB0A0149450CD8B9F146
:10389000000F09D02068012F13D0806926EA0000AC
:1038A0000004000C0BD0CFE744F8305F84F80D80A3
:1038B000A573206940F02000206125730120BDE838
:1038C000F0874069EAE72DE9F041002590460E4671
:1038D0000446202717E04069C043C0060CD454F8C2
:1038E000301B6FF01000486144F810596777A577D6
:1038F000206A2062257717E0FDF73CFDA0EB080069
:10390000B04208D83EB120684169C9434906E2D4B3
:103910000020BDE8F08144F8305F6773A57320692B
:1039200040F02000206125730120F2E770B51646B3
:103930000D4604460DE02046FFF744FE08B1012085
:1039400070BD681C05D0FDF715FD801BA84207D887
:1039500035B120684069C0430006ECD4002070BD3A
:10396000002044F8300F20216173A073216941F0D9
:10397000200121612073E2E708B500F07BFD0B4ECA
:103980004FF0FF3500242A466946306A05F0AEF84C
:103990009DF8000008B106A000E008A004F00CFCAF
:1039A0008DF80040012003F0C5FEECE70000002088
:1039B0000D0A4C4544204F4E0D0A00000D0A4C459F
:1039C00044204F46460D0A0008B501208DF800003E
:1039D00001466846FFF7EAFD18B103A004F0ECFBCE
:1039E00008BD06A0FAE70000496E69745F424831DD
:1039F000373530204572726F720D0A00496E697456
:103A00005F424831373530204F6B0D0A000000000F
:103A1000F0B40023002A18D90A24302537269C4602
:103A2000B4EB107F04D905EB107701F8137003E0B5
:103A300006EB107701F81370000101EB430787F8DC
:103A400001C05B1CDBB29342EAD3F0BC70470000BC
:103A50001CB59FED1D0A1D4E1D4F1E4C8DED010A1C
:103A60004FF0FF352A4601A9E06905F03FF80198BB
:103A7000B0420EDA002208213846FDF775FC01201D
:103A800000238DF800001A461946A06A04F01EFFB4
:103A90000BE0012208213846FDF766FC00208DF876
:103AA00000000146A06A05F0BDF8012805D10123F8
:103AB0002A466946206A04F009FF9DF800006070FC
:103AC000012003F037FECDE7000000000000A04118
:103AD000001802400000002010B50446007B0128B9
:103AE00002D1206803F05EFD002020606060A060CD
:103AF000207310BD5FF0010200F07F030B70C0095E
:103B000009D043F08003521C01F8013B042AF3DD85
:103B10004FF0FF307047104670472DE9F0410446E2
:103B2000002500680F462E4610B10220207315E0D4
:103B300001202073084603F087FD2060002808D08C
:103B4000C4E9016702E0206846556D1CA068A842E0
:103B5000F9D8BDE8F081206846556D1CA068A842E0
:103B6000F9D866608842F4D22660F2E72DE9FF4773
:103B7000174688468146FCF700FC84B24046FCF7B5
:103B8000FCFB0026A01D03F05FFD050025D0A11D54
:103B9000FCF7C0FB12A02246016829608088A8803B
:103BA00049462846FCF7F0FB4046FCF7E6FB034697
:103BB00000200DF1040A012100908AE883004246AA
:103BC00029460A2000F042F900B10126284603F0F8
:103BD000E9FC304604B0BDE8F0870120FAE70000B8
:103BE00024637273702F00002DE9FF5F9A4693469D
:103BF00000251046DDF844900E9F139CFCF7BDFB9A
:103C000006B2BBF1000F1FD006F111001FFA80F8B9
:103C100007B10225109868B145F00405FCF7ADFB2B
:103C2000C7B24846FCF7A9FBC11901EB0800001D0B
:103C30001FFA80F80F9870B1012807D0022808D029
:103C4000022004B0BDE8F09F0120FAE745F00C0522
:103C500001E045F01405129808B145F024050098DC
:103C600060B3019850B345F0C0070098FCF785FB9E
:103C700005460198FCF781FB291801EB0800001D9F
:103C800085B229462046FFF748FF2068C0B1294683
:103C9000FCF740FBD4E90030411C102261601A544B
:103CA000D4E900010144681FFFF724FF00B2002897
:103CB00008DA2046FFF710FF0520C2E70320C0E71F
:103CC0000420BEE7616823680844411C616000224B
:103CD0001A54D4E90030421C042162601954D4E91A
:103CE0000050421C4D2362602B54D4E90050421C0A
:103CF000626051232B54D4E90030451C5422656086
:103D00001A54D4E90050431C63602A54D4E90030AB
:103D1000421C62601954D4E90020411C61601754B0
:103D2000D4E90030411C4FEA1A2261601A54D4E9E8
:103D30000030421C626003F800A0D4E90030411C4E
:103D4000320A61601A54D4E90020411C61601654A3
:103D5000D4E90001084432465946FCF715FB606877
:103D600030446060780736D5B9F1000F01D10FF209
:103D7000D8091098FCF701FB85B2D4E90030411C4A
:103D80002A0A61601A54D4E90020411C616015546C
:103D9000D4E9000108442A461099FCF7F5FA606856
:103DA000284460604846FCF7E8FA85B2D4E9003060
:103DB000411C2A0A61601A54D4E90020411C616048
:103DC0001554D4E9000108442A464946FCF7DCFAB8
:103DD000606828446060380618D50098FCF7CDFA72
:103DE00085B2D4E90030411C2A0A61601A54D4E932
:103DF0000020411C61601554D4E9000108442A46A2
:103E00000099FCF7C1FA606828446060780618D50C
:103E10000198FCF7B2FA85B2D4E90030411C2A0AB5
:103E200061601A54D4E90020411C61601554D4E942
:103E3000000108442A460199FCF7A6FA6068284464
:103E400060600020FDE60000000000002DE9FF5F3B
:103E50008B46DDE90EA24FF00005119C99465FEA02
:103E60000008294608D1012004B0BDE8F09F2328AE
:103E700017D02B2815D06D1C1BF805000028F6D193
:103E800041F030070AB147F0010705EB0906B61CFF
:103E90005FEA0A000DD0012805D0022806D00320D1
:103EA000E2E70220E0E747F0020701E047F00407FD
:103EB000B61CF11C2046FFF730FE2068A0B1F11CB3
:103EC000FCF728FAD4E90020411C61601754D4E9BA
:103ED000000101443046FFF70DFE002806DA2046B7
:103EE000FFF7FAFD0520BFE70420BDE761682368FE
:103EF0000844411C2A0A61601A54D4E90020411C7C
:103F000061601554D4E9000108442A465946FCF77B
:103F10003BFA6068BAF1000F284460600BD0236858
:103F2000411C4FEA182261601A54D4E90030421C47
:103F3000626003F80080029850B1D4E9000108449F
:103F40004A460299FCF720FA616801EB09006060BB
:103F5000002089E77FB50D460120089C0021CDE9AE
:103F60000204CDE900011E460A46EB1C0CA10A2002
:103F7000FFF76CFF10B1012004B070BDD4E9002040
:103F8000411C61601654D4E90030411C2A0A61606A
:103F90001A54D4E90020411C616015540020EBE75D
:103FA00024647000F0B50446002001235D05106014
:103FB00012E0275C166807F07F0707FB03661660B0
:103FC000265C360601D4401CF0BDDB01AB4202D3B7
:103FD0006FF00100F0BD401C8842EADB4FF0FF307B
:103FE000F0BD2DE9F8430E4607461D4690462F21A9
:103FF000C01CFCF7B8F90021009150B3441C6A467C
:104000000421781CFFF7CEFF252003F01DFB306054
:1040100008B32521FCF77EF9242221463068FCF7FD
:1040200060F9009824342C3880B22880401C03F0BA
:104030000BFBC8F8000080B12988491CFCF76AF91D
:104040002A882146D8F80000FCF74BF90020BDE88B
:10405000F8830120FBE70220F9E7306803F0A2FAB9
:104060000320F4E74178022901D0012070478178CC
:1040700019B1012901D0FF207047C07870474178FD
:10408000022904D1817811B9C0780A2801D0012011
:10409000704700207047000038B504460078FF21C3
:1040A0000009421E0E2A01D3084638BD0328FCD160
:1040B000002000906A460421601CFFF773FF204433
:1040C0000099401C022907D32278D20704D1028824
:1040D00052BA921C8A4201D9FF2038BD04A1801C2B
:1040E000FCF72FF908B10F2038BD032038BD0000C0
:1040F00024637265710000000D4808B5016841F441
:10410000001101600068002200F4001000900521F9
:104110000C20FDF757FC0C20FDF746FC0022052182
:104120000E20FDF74FFCBDE808400E20FDF73CBC1B
:104130003038024030B5A9B00020249025900121EC
:1041400024A803F016FB2B4C2B4D0022A062D5E9CE
:104150000001CDE92601012126A803F053FB41F21D
:104160008831606203F06EFB08350DF1700C95E844
:104170000F008CE80F0000211CA8083D03F0E6FAB0
:104180001835E06195E80F0020AD85E80F000021AB
:1041900020A803F0DBFA184920621C222831684667
:1041A000FCF79FF80021684603F002FB1249E0602B
:1041B0001C22443107A8FCF794F8002107A803F05B
:1041C000F7FA0D4920611C2260310EA8FCF789F82E
:1041D00000210EA803F0ECFA074960611C227C3133
:1041E00015A8FCF77EF8002115A803F0E1FAA061FC
:1041F00029B030BD00000020509300082DE9F043A5
:1042000087B014216846FCF785F82B484FF0000969
:10421000016841F004010160016801F004010591A9
:10422000016841F020010160016801F02001059161
:10423000016841F080010160016801F08001059191
:10424000016841F001010160016801F0010105917F
:10425000016841F002010160016801F0020105916D
:10426000016841F0400101600068144F00F0400017
:104270000590002208213846FDF776F8DFF84080E7
:10428000BE15002231464046FDF76EF80124082095
:10429000CDE90004032569463846CDE90245FCF71F
:1042A0006BFFCDE90064CDE9029569464046FCF715
:1042B00063FF07B0BDE8F0833038024000180240C9
:1042C000000002400D4810B50B4901600C494160E7
:1042D00000214FF480428160C0E903124161816195
:1042E000C1610162FDF74CF8002803D0BDE8104021
:1042F000FCF77CBD10BD000000540040FC0800200D
:10430000A08601000D4810B50B4901600C494160C1
:1043100000214FF480428160C0E903124161816154
:10432000C1610162FDF72CF8002803D0BDE8104000
:10433000FCF75CBD10BD0000005800405009002093
:10434000A086010030B587B014216846FBF7E2FF74
:104350001D4800241B490594C0E900147F21816099
:10436000FF21C0E9031444618461FEF7A7FB08B193
:10437000FCF73CFD23258DF8005009208DF8010045
:104380008DF802400394012269460F480494FEF719
:104390006BFC08B1FCF72AFD05208DF814008DF8A0
:1043A000150026208DF816008DF81750012205A95A
:1043B0000548FEF7F5FB002801D0FCF717FD07B014
:1043C00030BD000000280040A40900200C4810B5B2
:1043D0000A4901604FF4E1314160002181600C2203
:1043E000C160C0E904128161C161FEF737FF002896
:1043F00003D0BDE81040FCF7F9BC10BD001001402F
:10440000C40900200C4810B50A4901604FF4E1319D
:104410004160002181600C22C160C0E90412816109
:10442000C161FEF71BFF002803D0BDE81040FCF778
:10443000DDBC10BD00440040080A00200C4810B547
:104440000A4901604FF4E1314160002181600C2292
:10445000C160C0E904128161C161FEF7FFFE00285E
:1044600003D0BDE81040FCF7C1BC10BD00480040BF
:104470004C0A002010B500220F49104801F045FAFF
:1044800008B1FCF7B3FC0E490C4801F049FC08B137
:10449000FCF7ACFC0B49094800F04DFF08B1FCF7F4
:1044A000A5FC064801F0FAFC002803D0BDE8104046
:1044B000FCF79CBC10BD0000C00000200C4C00208C
:1044C00000020020100100200C4810B50A490160CC
:1044D0004FF4C07141605F2181607F21C1604FF462
:1044E00000710161FFF71DF8002803D0BDE81040FE
:1044F000FCF77CBC10BD0000002C0040500B0020DD
:10450000FEE7FEE70148FDF7DDBB0000FC6200208E
:104510000024FCF72DFB00BF00F024F80028FBD19D
:104520000AA003F049FE641CA4B2642C04D300F07A
:1045300057FA0024FCF7EEFA0320FCF7F9FA08B169
:1045400000F0BAF9012003F0F5F8ECE7C1ACBDD3F7
:104550004F4E454E4554B3C9B9A6095B4F4B5D0D4F
:104560000A00000030B58BB000240694079408942C
:10457000012529A32BA22CA12DA0099403F01CFE38
:1045800006A8CDE904400294039400942B0222A2D1
:1045900024A125A00194FFF727FB40B130A003F030
:1045A0000BFE33A003F008FE0BB0284630BD079881
:1045B00081B20698FCF7E6FB36A003F0FDFDFA2079
:1045C000FCF7B6FA040021D039A003F0F5FD20462F
:1045D000FFF762FD022819D12046FFF743FD0628A8
:1045E00018D2DFE800F003080A0C0E1034A003F024
:1045F000E3FD00250AE037A006E03DA004E045A069
:1046000002E04CA000E054A003F0D6FD06A8FFF79E
:1046100063FAC9E75BA0F7E7393730373531323411
:104620003500000031323300353335313436000087
:104630004F6E654E65745F4465764C696E6B0D0A0E
:1046400050524F49443A2025732C09415549463A66
:104650002025732C0944455649443A25730D0A0018
:10466000C6BDCCA8CEDECFECD3A60D0A000000005C
:104670005741524E3A094D5154545F5061636B6536
:1046800074436F6E6E656374204661696C65640D7A
:104690000A000000C1ACBDD3C9CFB4ABCDEAB3C9E9
:1046A0000D0AB5C8B4FDCFECD3A60D0A000000007A
:1046B000C6BDCCA8D2D1CFECD3A60D0A0000000015
:1046C000546970733A09C1ACBDD3B3C9B9A60D0A18
:1046D000000000005741524E3A09C1ACBDD3CAA7F1
:1046E000B0DCA3BAD0ADD2E9B4EDCEF30D0A000030
:1046F0005741524E3A09C1ACBDD3CAA7B0DCA3BAE8
:10470000B7C7B7A8B5C4636C69656E7469640D0AF0
:10471000000000005741524E3A09C1ACBDD3CAA7B0
:10472000B0DCA3BAB7FECEF1C6F7CAA7B0DC0D0A5B
:10473000000000005741524E3A09C1ACBDD3CAA790
:10474000B0DCA3BAD3C3BBA7C3FBBBF2C3DCC2EBD1
:10475000B4EDCEF30D0A00005741524E3A09C1ACF8
:10476000BDD3CAA7B0DCA3BAB7C7B7A8C1B4BDD37D
:1047700028B1C8C8E7746F6B656EB7C7B7A8290DB5
:104780000A0000004552523A09C1ACBDD3CAA7B0D5
:10479000DCA3BACEB4D6AAB4EDCEF30D0A00000065
:1047A00070B5054610212A48FBF7B4FD294C207846
:1047B000012804D0002830D0022827D028E0264E37
:1047C0003068FBF7F5FD41EC100B24A053EC102BE7
:1047D00003F0F2FC28A01021008828801C48FBF779
:1047E00099FD3068FBF7E4FD41EC100B23A153EC7D
:1047F000102B174802F022FA15492846FBF795FDC1
:1048000021A12846FBF791FD022020700020207096
:104810002846FBF7B2FDC0B270BD1C4E1CA031781B
:1048200003F0CAFC14A01021008828800848FBF778
:1048300071FD32781DA1064802F000FA04492846AD
:10484000FBF773FD10A12846FBF76FFD0120DEE7A3
:10485000BC0D002030000020080000200D0AB1BE71
:10486000B4CECAE4B3F6B9E2D5D5C7BFB6C83A20CC
:1048700025660D0A000000007B000000224C49471D
:1048800048223A25660000007D000000010000205B
:104890000D0AB1BEB4CECAE4B3F6B5C6B9E2D7B418
:1048A000CCAC3A2025640D0A00000000224C45449F
:1048B00053223A256400000030B589B00546002037
:1048C000059006900390049000900190ADF80800C8
:1048D0002846FFF7E1FB0446042827D00F2C29D1F6
:1048E00002AB6A4601A92846FFF77BFB050004D00E
:1048F000FCF710F96D1C1FD022E0DDE90021BDF8A6
:1049000008301CA003F058FCDDE9001003AAFFF7F3
:104910002DF998B920A003F04FFC049881B20398B8
:10492000FCF730FA03A8FFF7D7F807E02846FFF7AF
:10493000A6FB18B1FCF7EEF809B030BDFCF7EAF8B9
:104940001BA10098FBF7FDFC08B11BA005E01EA110
:104950000098FBF7F6FC10B11DA003F02DFC0F2C06
:1049600001D0032CE8D1019802F01CFE009802F05F
:1049700019FEE1E7636D6469643A2025732C2072A7
:1049800065713A2025732C207265715F6C656E3AF3
:104990002025640D0A000000546970733A095365BC
:1049A0006E6420436D64526573700D0A0000000050
:1049B0004F50454E00000000426C75655F4C6564C9
:1049C0005F4F4E0D0A000000434C4F45440000006D
:1049D000426C75655F4C65645F4F46460D0A00008A
:1049E00030B5A7B00020239024902590044626904F
:1049F000802101A8FBF78EFC01A8FFF7D1FE05007E
:104A00000BD023A8009003230022294611A0FFF712
:104A1000A1FA70B112A003F0CFFB27B030BD015D49
:104A2000DDE92323D1542499491C641C24B2249128
:104A300000E001A8AC42F2DB249881B22398FCF795
:104A4000A1F90FA0249903F0B7FB23A8FFF744F8BE
:104A5000E3E70000393730373531323435000000B4
:104A60005741524E3A094D5154545F4E6577427545
:104A700066666572204661696C65640D0A00000017
:104A800053656E642025642042797465730D0A00B5
:104A90002DE9F04103680D4604461E6C03EB4511F9
:104AA000D1F8080BD4F810E04FF400474FF0200C79
:104AB00004F57172BEF1010F09D0DFF898E0764578
:104AC00039D1020432D500BFC1F8087B3FE0224B48
:104AD0005FEA007E04D59E4239D90004F4D436E062
:104AE0005FEA806E02D5C1F808CB30E010F0280FE5
:104AF0002DD19E4201D90004E6D4C5EBC50004EBDC
:104B00008000D1F8101BD0F80432C1F31201591AF9
:104B1000C0F81412D0F808121944C0F8081295B958
:104B2000D4F8100278B9012120680AE080060AD57D
:104B3000C1F808CB07E035B9D4F8100218B9002144
:104B4000184601F095FDE9B22046FCF7A1FF0020D0
:104B5000BDE8F0810A31544F0A30544F2DE9F84F27
:104B60000E46C1EBC60100EB810481460568D4E91D
:104B700014103C34884202D90120BDE8F88F081A8D
:104B8000A168814200D20846C01C870805EB461880
:104B90001BE000BFA0EB010AA068504500D282468E
:104BA0000AF10300870899F8100000901FFA8AF3B1
:104BB000F2B22846E16802F013F8E16801EB0A005E
:104BC000E060A16901EB0A00A061D8F8180980B281
:104BD000B84205D3D4E90501814201D20028D9D1D8
:104BE000D4E90501884208D806F00F010120884069
:104BF000D5F834188143C5F834180020BDE7010901
:104C000001EB810100F00F0000EB4100C0B27047E2
:104C1000002102E00A38C0B2491C0A28FAD209076A
:104C200040EA11607047000070B504460068C16832
:104C3000490614D44FF0FF31C160FCF79BFB0546D9
:104C40004FF47A7607E000BFFCF794FB401BB042BC
:104C500001D9032070BD2068C0684006F4D500204B
:104C600070BD000010B5502080F31188BFF34F8F46
:104C7000BFF36F8F04F042F918B104494FF0805030
:104C80000860002080F3118810BD000004ED00E0F2
:104C900030B593B030216846FBF73CFB14210CA8DB
:104CA000FBF738FB1F480025016841F08051016087
:104CB000006800F0805011901B48016841F4804169
:104CC00001600068022400F48040119005200090EB
:104CD0004FF480300190012002908005CDE906401C
:104CE00004200890A820CDE9090407200B9068460D
:104CF000FDF7E0FC08B172B6FEE70CA90F2081E8D1
:104D000031004FF4A0500F904FF4805010900521C7
:104D10000CA8FDF7BFFB002801D072B6FEE713B068
:104D200030BD000040380240007000400248016879
:104D300041F470010160704788ED00E00148FEF722
:104D400096B80000640B0020F0B50268254C264D93
:104D5000264E274F274B4FF0804CA04209D060458C
:104D600007D0A84205D0B04203D0B84201D0984243
:104D700004D122F0700E4A6842EA0E02A0421BD013
:104D8000604519D0A84217D0B04215D0B84213D010
:104D9000984211D0184DA8420ED0184DA8420BD001
:104DA000174DA84208D0174DA84205D0164DA8426D
:104DB00002D0164DA84203D122F44075CA682A4396
:104DC0004D6922F080022A4302608A68C2620A6842
:104DD0008262A04201D0984201D109690163012198
:104DE0004161F0BD000001400004004000080040A7
:104DF000000C00400004014000400140004401401C
:104E00000048014000180040001C00400020004005
:104E100010B5806B0021C185C184FEF7E9F810BD93
:104E200001680C3151E8002F22F4907241E8002310
:104E3000002BF5D10168143151E8002F22F0010256
:104E400041E80023002BF5D1016B012909D101684C
:104E50000C3151E8002F22F0100241E80023002B12
:104E6000F5D1202180F83E1000210163704708B57C
:104E700090F83E10222901D0022008BD82684FF42C
:104E800080539A4201D1016921B1816A9A421BD0B3
:104E90004AB10AE00268816A5268C2F308020A80D5
:104EA000816A891C08E0026972B10268526802F0E6
:104EB0007F020A70816A491C8162C18D491E090402
:104EC000090CC18503D019E002685268F1E7016856
:104ED000CA6822F02002CA600168CA6822F480729F
:104EE000CA6001684A6922F001024A61202180F803
:104EF0003E10016B012903D0FEF7FAFA002008BD2D
:104F00000021016301680C3151E8002F22F01002EA
:104F100041E80023002BF5D101680A68D20602D5CA
:104F20000A6849680091818DFEF761F8E6E70000A4
:104F300070B5044600680169E26821F440511143EC
:104F400001612169A068E26908436169114308436E
:104F50002168CA6849F20C639A430243CA60206818
:104F60004169A26921F440711143416131492068CE
:104F7000884202D03049884202D1FDF75BFB01E054
:104F8000FDF748FBE2690023192164253226B2F5BA
:104F9000004F626828D0A0FB0101930F9200FBF73D
:104FA0006FF90146B0FBF5F06FF01802504301EBCA
:104FB000800006EB0010B0FBF5F000F0F002B1FB52
:104FC000F5F002EB0012B1FBF5F06FF01803584357
:104FD00001EB800006EB0010B0FBF5F000F00F00D5
:104FE00021681044886070BDA0FB010192185B41EC
:104FF000FBF746F90146B0FBF5F00201B1FBF5F015
:105000006FF01803584301EB800006EBC000B0FBC3
:10501000F5F000F0F80002EB4002B1FBF5F0584368
:1050200001EB800006EBC000B0FBF5F000F00700DC
:10503000D6E7000000100140001401402DE9F041C6
:10504000984617460E460446069D27E0681C25D064
:105050002DB1FCF78FF9A0EB0800A8421ED92068FB
:105060000C3050E8001F21F4D07140E80012002AF3
:10507000F5D12068143050E8001F21F0010140E80C
:105080000012002AF5D1202084F83D0084F83E006B
:10509000002084F83C000320BDE8F081206800680F
:1050A00036EA000004D00020B842CFD00020F3E759
:1050B0000120F9E708B50F48FDF79CFF0D4800688F
:1050C0000068C043800613D44FF47A730122694606
:1050D0000848FEF7ADF908490888802801D3002068
:1050E0000880064B80B29DF800201A54401C0880AE
:1050F00008BD0000080A00202C0000203C0D002004
:1051000070B5D0F8C422D0F8BC32002B24D001EB0B
:10511000810C00EB8C040026D4F818C0BCF1000F01
:1051200009D0C1EBC10502EB8502556CBCFBF5F261
:1051300005FB12C292B1C3F81462D0F8C002D0F8D5
:1051400010C0BCF1000F05D00A4603F50471D3F876
:105150000802E047002070BD032070BDA661002357
:105160001A4600F0BBFDF5E770B50546D5F8BC4220
:10517000002C0ED0284600F093FCC4F80C02D5F8A1
:10518000C012D4F80402CA6804F5037190470020E5
:1051900070BD032070BD70B504468121204600F02B
:1051A000D1FB002525870121204600F0CBFBA4F888
:1051B00078518221204600F0C5FBA4F84C50A4F899
:1051C0004E50D4F8BC0248B1D4F8C00240688047C1
:1051D000D4F8BC0200F0D1FFC4F8BC52002070BD6E
:1051E00010B5D0F8BC42002C10D0D0F8C01259B184
:1051F00094F80002FF2807D08B6894F8012221461A
:105200009847FF2084F80002002010BD032010BD45
:105210000A210180004870472801002043210180B5
:105220000048704778010020432101800048704702
:10523000340100204321018000487047BC01002058
:105240002DE9F04104464FF4077000F097FF054642
:105250000027002D34D0C4F8BC52207C01264FF02A
:105260001008002831D0402302228121204600F07E
:105270007EFC2687402302220121204600F077FC95
:10528000A4F87861A4F84E800823032282212046E6
:1052900000F06DFCA4F84C60D4F8C00200688047B0
:1052A000C5F81472C5F81872207C10B34023012190
:1052B0002046D5F8042200F066FC0020BDE8F0810D
:1052C000C4F8BC720220BDE8F0814FF400730222E2
:1052D0008121204600F04BFC26874FF40073022208
:1052E0000121204600F043FCA4F87861A4F84E8028
:1052F000CAE74FF4007301212046D5F8042200F0DC
:1053000042FCDAE710B5D0F8BC12002909D0027CC3
:105310004AB1D1F804224023012100F034FC0020DE
:1053200010BD032010BDD1F804224FF400730121F9
:1053300000F029FCF3E7002903D0C0F8C0120020D8
:10534000704703207047D0F8BC02002803D0C0F893
:1053500004120020704703207047D0F8BC020028D8
:1053600005D0C0F80812C0F81022002070470320B2
:105370007047F0B583B005460C46D5F8BC720020E6
:10538000029001900026002F0DD0207810F06001CF
:1053900034D020290AD02146284600F0AFF8032651
:1053A00003B03046F0BD03B00320F0BDE288EAB19F
:1053B00010F0800F0ED0D5F8C01260788B68394697
:1053C0009847E288072A00D907223946284600F084
:1053D000BBF8E5E7607887F80002A07987F801025A
:1053E000E2883946284600F095F8D9E7D5F8C0128A
:1053F000607800228B6821469847D1E7607858B1E1
:105400000128CDD00A2817D00B2825D021462846C0
:1054100000F074F80326C3E795F89C02032805D032
:105420002146284600F06AF80326B9E7022201A9BE
:10543000284600F089F8B3E795F89C02032805D0C8
:105440002146284600F05AF80326A9E7012202A9BE
:10545000284600F079F8A3E795F89C0203289FD02E
:105460002146284600F04AF8032699E710B5D0F8FF
:10547000BC120122002903D0D1F8143213B10FE07D
:10548000032010BD0122C1F81422D1F81022C262FB
:10549000D1F81032D1F80822812100F01FFC00223F
:1054A000104610BD10B5D0F8B822002A01D05268BD
:1054B0009047002010BD90F89C22012A05D0022AB6
:1054C00003D0032A01D000F019B84988012904D17A
:1054D0000021C0F8A41200F044B8704710B513467C
:1054E0000A46002100F04FFB002010BD10B5134606
:1054F0000A46002100F0F2FB002010BD10B5044662
:105500008021204600F0CFFB2046BDE8104000215E
:1055100000F0C9BB10B50323C0F89432C0F858217D
:10552000C0F85C2113460A46002100F02CFB002045
:1055300010BD10B50521C0F8941200231A46194673
:1055400000F021FB002010BD10B50223C0F89432FA
:105550008261C26113460A46002100F0BFFB0020B1
:1055600010BD10B50421C0F8941200231A46194644
:1055700000F0B4FB002010BD10B5002806D00A468C
:10558000054906A000F08DF9034810BD0A460249FE
:1055900002A000F086F9F7E7DC4E002043444320E8
:1055A000436F6E66696700001220088000487047EC
:1055B000E000002010B5002806D00A46054906A0E4
:1055C00000F06FF9034810BD0A46024902A000F03E
:1055D00068F9F7E7DC4E002043444320496E7465C8
:1055E000726661636500000004200880004870470F
:1055F000DC00002010B50A46024903A000F051F972
:10560000004810BDDC4E002053544D6963726F6535
:105610006C656374726F6E696373000010B5002867
:1056200006D00A46054906A000F03BF9034810BD24
:105630000A46024902A000F034F9F7E7DC4E0020E8
:1056400053544D3332205669727475616C20436F28
:105650006D506F727400000010B51A200880FBF7BF
:10566000C7FB014810BD0000F4000020CA88012AD1
:1056700001D0FFF743BF90F89C22012A05D0022AEF
:1056800003D0032A08D0FFF739BF0021816001222F
:1056900000F10801FFF758BF0122011DFFF754BFB9
:1056A0002DE9F84304460F4600200090002600250F
:1056B0007888010A082970D2DFE801F0AB040C22D7
:1056C000ABAB8B9AD4F8B412207C0A686946904739
:1056D0000646A3E0207C4FF0020840B1D4F8B8029F
:1056E000C16A68468847064686F8018096E0D4F885
:1056F000B802816A68468847064686F801808DE0D0
:10570000C0B206285FD2DFE800F0031221303F4F1D
:10571000D4F8B402426822B1207C6946904706461C
:105720007CE039462046FFF7E9FE012576E0D4F813
:10573000B402826822B1207C6946904706466DE03B
:1057400039462046FFF7DAFE012567E0D4F8B402B7
:10575000C26822B1207C6946904706465EE0394621
:105760002046FFF7CBFE012558E0D4F8B4020269C9
:1057700022B1207C6946904706464FE039462046D4
:10578000FFF7BCFE012549E0D4F8B40242692AB112
:10579000207C69469047064640E03AE0394620467C
:1057A000FFF7ACFE012539E0D4F8B402826922B1DA
:1057B000207C69469047064630E039462046FFF790
:1057C0009DFE01252AE039462046FFF797FE012578
:1057D00024E0207C28B139462046FFF78FFE0125C2
:1057E0001CE0D4F8B802416B68468847064615E0CD
:1057F000207C28B139462046FFF780FE01250DE0C8
:10580000D4F8B802016B68468847064607217170D4
:1058100004E039462046FFF771FE0125002D0CD12A
:10582000FA8892B1BDF8000048B1824200D9024620
:10583000009231462046FFF787FEBDE8F8833946DF
:105840002046FFF75BFEBDE8F8832046FFF789FEA0
:10585000BDE8F88300210278002A05D0491CC9B2AE
:10586000401C0278002AF9D10846704790F89C2223
:10587000012A05D0022A03D0032A01D0FFF73EBE39
:10588000CA88022A01D0FFF739BE0121C160D0F8D1
:10589000A41209B10321C160022200F10C01FFF73B
:1058A00053BE70B50D46164600281BD00446204650
:1058B000FFF7D0FF022101EB4000308030782870E4
:1058C000032068700222207800280BD00021207865
:1058D000A854641C501CC0B22954401CC2B2207889
:1058E0000028F4D170BD01460020002906D001290E
:1058F00005D0022905D0032905D0032070470320D5
:105900007047012070470320704700280FD0002304
:10591000C0F8B832C0F8C032C0F8CC3209B1C0F813
:10592000B412012180F89C12027000F0BDB803206F
:10593000704710B5D0F8C402FCF7DEF8BDE810409F
:10594000FFF7D1BF10B5D0F8C402FCF7AFF8BDE83F
:105950001040FFF7C8BF70B504461346002904D0B5
:1059600094F89C0203284AD051E004F11400D4F8C2
:1059700094120025022938D18268C1688A420CD964
:10598000521A826019462046FFF7B0FD00231A46DE
:105990001946204600F0F7F827E0914214D14068FC
:1059A000884211D3D4F8981288420DD200221146B1
:1059B0002046FFF79BFDC4F8985200231A4619466B
:1059C000204600F0E0F810E094F89C02032805D18E
:1059D000D4F8B802C16809B1204688478021204622
:1059E00000F061F92046FFF7A4FD94F8A002012819
:1059F0000DD1204600F0A6F984F8A05207E0D4F8B3
:105A0000B80242691AB120469047002800D1002010
:105A100070BD10B5044608461146002804D094F81D
:105A20009C12032922D02AE004F5AA70D4F894220B
:105A3000032A24D18368C268934209D99A1A8260E2
:105A4000C068824200D302462046FFF747FD16E0B9
:105A500094F89C02032805D1D4F8B802016909B171
:105A6000204688472046FFF77CFD08E0D4F8B812AE
:105A70008A6922B1014620469047002800D10020C3
:105A800010BD0020704710B5012180F89C12D0F89D
:105A9000B822002A02D0526801799047002010BD38
:105AA000D0F8C402FCF756B810B50178002927D108
:105AB0001449C1F80404C0F8C4124FF0A0400860B3
:105AC000042048600222CA60002008618A61C8611F
:105AD00008624862C86208630846FCF715FB08B113
