:020000040800F2
:10000000C07200205D020008C3500008EB3F0008EA
:10001000C150000829140008C9770008000000003A
:100020000000000000000000000000009D0100082A
:100030003915000800000000F901000825580008E3
:10004000F1770008770200087702000877020008BD
:1000500077020008770200081518000877020008E8
:10006000770200087702000877020008770200088C
:10007000A514000877020008B114000877020008F0
:10008000770200087702000877020008770200086C
:10009000770200087702000877020008770200085C
:1000A00077020008FD580008770200087702000870
:1000B000770200087702000877020008770200083C
:1000C000770200087702000877020008770200082C
:1000D0007702000877020008755C000877020008C4
:1000E000770200087702000877020008770200080C
:1000F00077020008770200087702000877020008FC
:1001000077020008770200087702000877020008EB
:1001100077020008770200087702000877020008DB
:1001200077020008770200087702000877020008CB
:1001300077020008770200087702000877020008BB
:10014000770200087702000877020008C55000080F
:10015000770200087702000877020008770200089B
:10016000770200087702000877020008770200088B
:1001700077020008770200087702000800000000FC
:100180007702000877020008DFF80CD000F05CFC72
:1001900000480047D9810008C07200202C4B196824
:1001A0000868B0E8F04F80F30988BFF36F8F4FF015
:1001B000000080F3118870470000000008480068C4
:1001C000006880F308884FF0000080F3148862B65E
:1001D00061B6BFF34F8FBFF36F8F00DF00BF00BF6B
:1001E00008ED00E0DFF80C00016841F470010160E7
:1001F000704700BF88ED00E0EFF30980BFF36F8F19
:10020000134B1A681EF0100F08BF20ED108A20E96A
:10021000F04F106009B44FF0500080F31188BFF325
:100220004F8FBFF36F8F09F08DF94FF0000080F30F
:10023000118809BC19680868B0E8F04F1EF0100F6B
:1002400008BFB0EC108A80F30988BFF36F8F704746
:1002500050000020EFF305807047000006488047FB
:1002600006480047FEE7FEE7FEE7FEE7FEE7FEE79B
:10027000FEE7FEE7FEE7FEE7ED580008890100080B
:100280002DE9F05F0546002092469B4688460646CB
:10029000814640241BE0284641464746224600F05E
:1002A0007EFA53465A46C01A914110D31146184659
:1002B000224600F065FA2D1A67EB01084F462246E8
:1002C0000120002100F05CFA17EB00094E41201ECE
:1002D000A4F10104DFDC484631462A464346BDE826
:1002E000F09F40EA01039B0703D009E008C9121FF1
:1002F00008C0042AFAD203E011F8013B00F8013BE0
:10030000521EF9D27047D2B201E000F8012B491E0B
:10031000FBD270470022F6E710B513460A460446A2
:100320001946FFF7F0FF204610BD421E12F8013FAC
:10033000002BFBD111F8013B02F8013B002BF9D156
:10034000704730B505462A460B4612F8010B13F8E4
:10035000014B08B1A042F8D01CB1002802D06D1C9E
:10036000F1E7284630BDCAB2401E10F8011F8A428C
:1003700002D00029F9D100207047421C10F8011B5F
:100380000029FBD1801A704710B5044600E0401CDC
:100390000378002BFBD100E0401C521E04D311F85F
:1003A000013B0370002BF7D100210170204610BDE6
:1003B000F0B480EA0102D40F4200B2EB410F02D246
:1003C0000246084611464A0042D0C30DDDB2C1F3D1
:1003D000C752AD1A202D35DAC1F3160141F40002DF
:1003E00004B15242C5F1200602FA06F12A41104436
:1003F000B3EBD05F23D0C4B1012DA0EBC35009DC17
:10040000F0BC4FF0004202EAC352DBB200F500003C
:1004100000F0F0B9400000F1807000EBC350A0F193
:10042000807040EAD170490009E0490841EAC07192
:10043000A0EBC35000F50000400800EBC350F0BC37
:1004400000F0CFB96142012202EB4101001BF6E747
:10045000F0BC704781F00041AAE780F00040A7E7B8
:1004600080EA010210B502F00043400022D04A00A9
:100470001FD0010E01EB1261C0F35600C2F3560209
:1004800040F4000042F40002A0FB022000047F3987
:10049000140400D0401C50EA124001D44000491E10
:1004A000C2B20C0604EBD010401C4008802A02D0D7
:1004B00003E0002010BD20F00100002900DA002038
:1004C000184310BD2DE9FE4F804681EA0300C00F9E
:1004D0000C46009021F0004123F00045B8EB0200EB
:1004E000A94105D24046214690461C460B4602468D
:1004F00023F00040104347D0270DC7F30A00C3F391
:100500000A510290401A019040286BDAC3F313009D
:1005100040F4801B0098924620B10023D2EB030ADE
:1005200063EB0B0B01985946C0F14002504600F0B6
:1005300027F906460D4650465946019A00F03FF904
:1005400010EB08006141002487EA115284EAE77346
:100550001A4340D0009A62B3019A012A4FEA075227
:1005600015DC001B61EB02014FF0004202EA07526A
:10057000CDE90042001C41F5801132462B4600F0C7
:1005800076F903B0BDE8F08F40462146F9E7001B3D
:1005900061EB0201001C41F5801300185B4120183B
:1005A000A2F5001747EB030140EAD570B6196D417B
:1005B00011E06D084FEA360645EAC0754FEA07526A
:1005C000001B61EB0201001C41F5801149084FEA54
:1005D00030000019514132462B4603B0BDE8F04FC0
:1005E00000F036B90098012240000023D0EB02024F
:1005F00063EBE073009821464FEAE074B8EB00002B
:1006000061EB0401E9E783F000435BE781F000411F
:1006100058E72DE9FE4F81EA030404F0004421F07D
:10062000004100944FF0000B23F0004350EA010416
:100630005ED052EA03045BD0C3F30A54C1F30A55F7
:100640002C44A4F2F3340194A0FB0254C1F313012F
:1006500041F48011C3F3130343F4801301FB0244FC
:1006600000FB034E840A970A44EA815447EA835701
:10067000A4FB076802958D0A05FB07854FEA932CBA
:1006800004FB0C542705029D4FEA065847EA16372B
:10069000B5EB08056EEB070C870E920E47EA811743
:1006A00042EA8312A7FB0201B6EB0B0164EB0004E4
:1006B0002B0D43EA0C335E1844EB1C50DA465146CE
:1006C000E7FB0201C5F313044FEA0B3343EA14536B
:1006D0004FEA0432019C43EA0603A4F10C0402949D
:1006E000009CCDE900B400F0C2F803B0BDE8F08F83
:1006F00000200146F9E700F0004230F000400AD047
:10070000C10D01F56071C0F3160042EA0151C20843
:1007100040071143704700200146704701F0004335
:1007200030B421F0004150EA010206D00A0DA2F5D2
:100730006072C1F31301002A02DC30BC0020704754
:10074000440F44EAC104C100E01830BC00EBC250C1
:1007500000F047B830B50B460146002020220124A6
:1007600009E021FA02F59D4205D303FA02F5491B7F
:1007700004FA02F52844151EA2F10102F1DC30BD95
:10078000202A04DB203A00FA02F100207047914051
:10079000C2F1200320FA03F3194390407047202A46
:1007A00004DB203A21FA02F00021704721FA02F31B
:1007B000D040C2F120029140084319467047202AD8
:1007C00006DBCB17203A41FA02F043EAE07306E079
:1007D00041FA02F3D040C2F1200291400843194689
:1007E00070470029A8BF7047401C490008BF20F08F
:1007F0000100704710B4B0FA80FC00FA0CF050EA27
:10080000010404BF10BC704749B1CCF1200421FAA7
:1008100004F411FA0CF118BF012121430843A3EBA2
:100820000C01CB1D4FEA00614FEA102042BF0020AF
:1008300010BC704700EBC35010440029A4BF10BC8B
:100840007047401C490008BF20F0010010BC7047F1
:1008500010B5141E73F1000408DA401C41F10001C8
:1008600092185B411A4301D120F0010010BD2DE91F
:10087000F04D92469B4611B1B1FA81F202E0B0FA16
:1008800080F220329046FFF77BFF04460F4640EA95
:100890000A0041EA0B0153465A46084313D0114659
:1008A00053EA010019D0C8F140025046FFF777FF24
:1008B00005460E46504659464246FFF761FF08433B
:1008C00005D0012004E020463946BDE8F08D002027
:1008D000054346EAE0762C4337430A986305E40A69
:1008E000A0EB08000022FD0A44EA47540A3002D572
:1008F00000200146E9E7010510196941DDE90845D5
:1009000000196941BDE8F04DA2E72DE9F04D81EAFB
:10091000030404F0004B21F0004514464FF0000A98
:1009200023F0004150EA050220D054EA01021DD014
:10093000C5F30A570246C5F31303C1F31300C1F30D
:100940000A5640F4801543F48013A7EB0608101BE9
:10095000D64608F2FD3873EB050002D308F1010812
:1009600001E092185B41B8F1000F03DA0020014664
:10097000BDE8F08D00204FF48011064684460EE05D
:10098000171B73EB050705D3121B63EB0503064327
:100990004CEA010C49084FEA300092185B4150EADA
:1009A0000107EDD152EA030012D082EA040083EA83
:1009B0000501084305D0101BAB4106D201220023DC
:1009C00006E000224FF0004302E06FF001025310F6
:1009D0001AEB06004CEB085110EB0A0041EB0B013F
:1009E000BDE8F04DFFF734BFC1F30A52C1F3130164
:1009F00040F2FF3341F480119A4202DA00200146AE
:100A0000704740F233439A42A2F2334202DC524230
:100A1000FFF7C5BEFFF7B4BE30B5041E71F1000488
:100A200004DB4FF00044404264EB0101141E73F1FB
:100A3000000405DB1C464FF00043524263EB040305
:100A4000994208BF904230BD064C074D06E0E06871
:100A500040F0010394E8070098471034AC42F6D305
:100A6000FFF796FBD0A30008F0A3000870B58C1820
:100A700010F8015B15F0070301D110F8013B2A11B2
:100A800006D110F8012B03E010F8016B01F8016B9F
:100A90005B1EF9D12B0705D40023521E0DD401F89B
:100AA000013BFAE710F8013BCB1A921C03E013F864
:100AB000015B01F8015B521EF9D5A142D8D3002099
:100AC00070BD00002DE9F04FABB092468B46D0E9E7
:100AD00001120688701E0E920391029001EB8004B1
:100AE0000020CDE90063B0EBD30F00F0BF83A0EB93
:100AF000D600DB080D46069046F0070001EB8000AB
:100B00000B9026F0070002EB80000590F00808909B
:100B100006F0070007904042049000BFDBF8000099
:100B2000CDF830B02F462060DBF804006060DBF8C1
:100B30000800A060DBF80C00E060DBF8100020612A
:100B4000DBF814006061DBF81800A061DBF81C0022
:100B5000E061D5E90028AD68D7E903B1D7E9056EB2
:100B600008980F97CDE9093A00282195CDE9288BFF
:100B700000F0C88200230D941446069AB346002064
:100B800088464FF0000C4FF000097546189300237B
:100B900026461D9300231A930023199300231C93C8
:100BA00000231B9310920E9A1290CDF850C011584A
:100BB000141830462291FFF753FC01464846FFF7D0
:100BC000F7FBDDF8A0A06168074650462A91FFF7C1
:100BD00047FC01463846FFF7EBFBDDF88490A1683F
:100BE000074648462391FFF73BFC01463846FFF78E
:100BF000DFFB299EE1680746304627912996FFF7DB
:100C00002FFC01463846FFF7D3FB216907464046D3
:100C1000CDF880802591FFF723FC01463846FFF789
:100C2000C7FB616907465846D8462491FFF718FC70
:100C300001463846FFF7BCFBA16907462846AB468C
:100C40002691FFF70DFC01463846FFF7B1FB07463A
:100C500012980F990844E1691F90C0691E910446DB
:100C6000FFF7FEFB01463846FFF7A2FB22991790DB
:100C70005046FFF7F5FB01461B98FFF799FB2A99B1
:100C800007464846FFF7ECFB01463846FFF790FB66
:100C9000DDF88CA0074630465146FFF7E1FB0146E0
:100CA0003846FFF785FB209D279907462846FFF722
:100CB000D7FB01463846FFF77BFB259907464046A0
:100CC0004646FFF7CDFB01463846FFF771FBDDF8DE
:100CD000908007465846CDF84CB04146FFF7C0FB20
:100CE00001463846FFF764FB2699074620461194D3
:100CF000FFF7B6FB01463846FFF75AFB07461F9839
:100D00001E99006A1590FFF7ABFB01463846FFF7C6
:100D10004FFB22991B904846FFF7A2FB01461C9807
:100D2000FFF746FB0746DDE92901FFF799FB01467E
:100D30003846FFF73DFB074628465146FFF790FB34
:100D400001463846FFF734FB279907463046FFF740
:100D500087FB01463846FFF72BFB25990746584687
:100D6000FFF77EFB01463846FFF722FB0746204689
:100D70004146FFF775FB01463846FFF719FB159D05
:100D8000269907462846FFF76BFB01463846FFF7D2
:100D90000FFBDDF87CB0DDF878900746DBF82480A7
:100DA00049464046FFF75CFB01463846FFF700FB2B
:100DB000DDF888A01C9029985146FFF751FB0146A9
:100DC0001998FFF7F5FA044620982A99FFF748FB8F
:100DD00001462046FFF7ECFA239904463046169662
:100DE000FFF73EFB01462046FFF7E2FA0446139860
:100DF0002799FFF735FB01462046FFF7D9FA119FE7
:100E0000259904463846FFF72BFB01462046FFF79D
:100E1000CFFA249904462846FFF722FB01462046D4
:100E2000FFF7C6FA269904464046CDF8A080FFF7A2
:100E300017FB01462046FFF7BBFADBF828B0044653
:100E400049465846CDF884B0FFF70AFB01462046D4
:100E5000FFF7AEFA199020985146FFF701FB0146C3
:100E60001A98FFF7A5FA2A9904463046FFF7F8FAD0
:100E700001462046FFF79CFA139E2399044630460C
:100E8000FFF7EEFA01462046FFF792FA279904464B
:100E90003846BA46FFF7E4FA01462046FFF788FADB
:100EA000DDF89490159F044638464946FFF7D8FA76
:100EB00001462046FFF77CFA249904464046FFF796
:100EC000CFFA01462046FFF773FA04465846DDF88C
:100ED00098B05946FFF7C4FA01462046FFF768FA72
:100EE00005461F98DDF87880C06A41462990FFF7D3
:100EF000B7FA01462846FFF75BFA1A90169822992E
:100F0000FFF7AEFA01461D98FFF752FA2A990546F7
:100F10003046FFF7A5FA01462846FFF749FA23991C
:100F2000054650465446FFF79BFA01462846FFF710
:100F30003FFADDF89CA0054638465146FFF790FA87
:100F400001462846FFF734FA054628984946FFF738
:100F500087FA01462846FFF72BFA219F2499054678
:100F60003846FFF77DFA01462846FFF721FA054685
:100F700029985946FFF774FA01462846FFF718FAF0
:100F80001F9D06464146286B2090FFF769FA0146EF
:100F90003046FFF70DFA1D9013982299FFF760FA7B
:100FA00001461898FFF704FA2A9906462046FFF7EB
:100FB00057FA01463046FFF7FBF9159C2399064680
:100FC0002046FFF74DFA01463046FFF7F1F9DDF80C
:100FD000A0B0064651465846FFF742FA0146304651
:100FE000FFF7E6F9259906463846FFF739FA014634
:100FF0003046FFF7DDF9DDF8A48024990646404627
:10100000FFF72EFA01463046FFF7D2F9DDF880905F
:10101000269906464846FFF723FA014630462646FB
:10102000FFF7C6F9D5F834A01E9907465046FFF7DA
:1010300017FA01463846FFF7BBF918902298119924
:10104000179DFFF70DFA01461498FFF7B1F907460F
:101050002A982146FFF704FA01463846FFF7A8F917
:10106000074623985946FFF7FBF901463846FFF734
:101070009FF9074627982199FFF7F2F9014638466C
:10108000FFF796F9074625984146FFF7E9F901462B
:101090003846FFF78DF9074624984946C846FFF7BA
:1010A000DFF901463846FFF783F90746269851468F
:1010B000D346A946FFF7D4F901463846FFF778F939
:1010C00007461F98856B1E982946FFF7C9F9014608
:1010D0003846FFF76DF9109A844612982030013295
:1010E0007FF460ADCDF858B00DF16C08AA46DDE98B
:1010F000191B059CDDF82CE02A940D9C98E80C0146
:10110000189E14E0CDE91526209107F11C00F24647
:101110004FF00009002200234FF0000B4FF00008B1
:1011200000264FF0000C0E9986462A9100210C985B
:1011300020340D9420300C900798CDE9191B00281D
:101140001BA880E80C01CDE9179669D0049DDDE964
:1011500028B6DDE92093DDE91501DDF8A8807446A5
:10116000CDF858A058F804AB4F468946CDF850C08A
:10117000CDF8A8B0289321965146FFF771F90146A2
:101180001798FFF715F9179058465146FFF768F979
:1011900001461B98FFF70CF91B9028985146FFF762
:1011A0005FF901461C98FFF703F91C903046514641
:1011B000FFF756F901461998FFF7FAF819903846E3
:1011C00051463E46FFF74CF901461A98FFF7F0F8F2
:1011D0001A9048465146FFF743F901461D98FFF71C
:1011E000E7F8DDF858B01D9051465846FFF738F93A
:1011F00001461898FFF7DCF854F8047B1890504625
:101200003946BA46FFF72CF901461498FFF7D0F893
:1012100059468446219BDDF8A0B02A9801359FD11C
:10122000DDF828A01798CAF800001B98CAF8040037
:101230001C98CAF808001998CAF80C001A98CAF83D
:1012400010001D98CAF814001898CAE9060C0AF193
:10125000200A0B98099B0F9D2030013B05F12005CA
:101260000B90DDE90CB47FF459AC00E00D46019819
:1012700010F0070926D00098DDF8388040422A9007
:10128000DBF800002A9E0D9400272060002400BF98
:10129000E85958F80710FFF7E3F801462046FFF732
:1012A00087F80446013607F10407F1D14AF8044BE8
:1012B0000D9CB9F1010905F104050BF1040B04F1D2
:1012C0000404DDD1029B0020B0EB930F11D09808ED
:1012D000039A404229680130116069685160A96829
:1012E0009160E96805F11005D16002F11002F1D1B9
:1012F00000E0039A13F0030006D0404255F8041BA7
:10130000013042F8041BF9D12BB0BDE8F08FB0B525
:1013100082600546018004981C4608446FF0030172
:1013200001EB80011846FEF7F5FF6C60B0BD0000D0
:101330002DED028B84B09FED270A00208DED000A71
:101340000290039003F06CF8C82000F01BFC01250C
:1013500010269FED218A214CB5F102078DF804502B
:10136000012101A802F04EFE30B100BF9DF804102B
:101370001BA007F09DFEF1E78DF80460012101A894
:1013800002F040FE0028F1D1C82000F0FBFB022152
:1013900002A802F02BFE18B11BA007F089FEDDE7C2
:1013A0009DF809009DF80810012300EB012000EED4
:1013B000100A3A466946F8EEC00A80EE880A8DEDBA
:1013C000000A84ED020A206A08F0FCF9012007F007
:1013D00021F9C3E7000000009A99993F000000201E
:1013E0004932435F4248313735305F4F7065636F34
:1013F00064655F57726974653A20253278204572BA
:10140000726F720A000000004932435F4248313770
:1014100035305F446174615F526561643A202045F4
:1014200072726F720A000000FEE704284FF000009D
:10143000704700207047000010B50022044905489D
:1014400004F06BFD0449034804F05DFD002010BD6D
:10145000985E0020C85100209856002010B5014623
:10146000034804F050FD024804F02CFD002010BD9C
:10147000C85100200020704710B50A460849D1F82D
:10148000BC12D1F81412002901D0012010BD014670
:10149000034804F042FDBDE81040014804F0C6BD19
:1014A000C8510020014800F033BA00009C0A002017
:1014B000014800F02DBA0000FC0A00200168182342
:1014C000CAB2103AB2FBF3F2054B6FF30901032ADB
:1014D0009B5CC36500D9091D816508467047000003
:1014E00070A3000810B5014600208B698A6A4FF08E
:1014F000C07453B1B3F5005F15D072B1012A0CD09E
:10150000022A0AD0032A09D104E01AB1012A06D01E
:10151000022A03D1C96AC90100D5012010BDC96AD8
:10152000A142FAD010BD002AF7D0012AF2D0022A37
:10153000F3D0032AF3D010BD7047000010B580210E
:101540000348FEF7E7FE03490020088010BD0000B5
:10155000480D00203000002010B5044600F04AF984
:1015600058B90AA10B48FEF7ECFE30B13A21FEF75C
:10157000FAFE002800D0401C10BD052000F002FB40
:101580002046641EA4B2E9D210BD00004950442C8C
:1015900000000000480D00202F4810B50068C16809
:1015A00041F02001C160FFF7C9FF2CA007F080FDCA
:1015B00002E0642000F0E6FA2AA12BA000F0D2F8A5
:1015C0000028F6D12AA007F073FD28A12BA000F077
:1015D000C9F8642000F0D6FA24A12BA000F0C2F8CC
:1015E000642000F0CFFA2CA007F062FD02E0642036
:1015F00000F0C8FA1BA12BA000F0B4F80028F6D127
:101600002CA007F055FD02E0642000F0BBFA15A104
:101610002CA000F0A7F80028F6D12EA007F048FD76
:1016200002E0642000F0AEFA2DA12FA000F09AF89D
:101630000028F6D134A007F03BFD02E0642000F062
:10164000A1FA35A136A000F08DF80028F6D1BDE84A
:1016500010403EA007F02CBD140A0020302E20417F
:10166000540D0A004F4B000041540D0A00000000C9
:10167000312E205253540D0A0000000041542B52C9
:1016800053540D0A0000000041542B434950434C71
:101690004F53450D0A000000322E2043574D4F4452
:1016A000450D0A0041542B43574D4F44453D310DE4
:1016B0000A000000332E2041542B43574448435026
:1016C0000D0A000041542B4357444843503D312CF0
:1016D000310D0A00342E2043574A41500D0A0000B4
:1016E000474F54204950000041542B43574A415022
:1016F0003D2241636532222C223132333738303873
:101700003037220D0A000000352E20434950535433
:101710004152540D0A000000434F4E4E45435400C1
:1017200041542B43495053544152543D2254435049
:10173000222C223138332E3233302E34302E3339AE
:10174000222C363030320D0A00000000362E2045A3
:1017500053503832363620496E6974204F4B0D0A8B
:101760000000000070B50E460546C824FEF705FED1
:1017700082B229460B4806F029F80EE000F03AF84C
:1017800040B931460848FEF7DCFD18B1FFF7D6FE38
:10179000002070BD0A2000F0F5F9641EE4B2EDD21D
:1017A000012070BD140A0020480D002030B589B01A
:1017B0000C460546FFF7C2FE224608A1684606F021
:1017C0001DF80AA16846FFF7CDFF002804D1224684
:1017D0002946074805F0FAFF09B030BD41542B43B4
:1017E000495053454E443D25640D0A003E0000001B
:1017F000140A00200648018831B14288914205D17F
:101800000021018008467047012070474180FBE7B6
:1018100030000020012000F0CFB972B6FEE70000D2
:1018200070B50B480168001D0568001D006808447C
:1018300000280CD0074C0822A11C02F015FE04F170
:1018400012012846BDE87040042202F00DBE70BDB2
:10185000107AFF1F000100202DE9F0410446876D3A
:1018600000F0B4FA064694F835000025022806D0A8
:101870008020606584F834500120BDE8F081206844
:10188000016821F0160101602068416921F08001A2
:101890004161206C08B9A06C20B12068016821F07A
:1018A000080101602068016821F0010101600CE07D
:1018B00000F08CFA801B052807D9202060650320E2
:1018C00084F8350084F83450D7E720680068C007F2
:1018D000EED194F85C103F208840B860012084F875
:1018E000350084F834500020C7E790F835100229FD
:1018F00003D08021416501207047052180F8351013
:101900000068016821F001010160002070470000BB
:101910002DE9F84304464FF00009CDF800906348E4
:101920004FF41651A56D0068B0FBF1F72E6894F8DE
:101930005C10082000FA01F131420FD021680A68DA
:1019400052070BD50A6822F004020A6094F85C1072
:101950008840A860606D40F00100606594F85C10FC
:101960004FF0010808FA01F0304208D021684969B7
:10197000090604D5A860606D40F00200606594F827
:101980005C1004208840304208D02168096889072B
:1019900004D5A860606D40F00400606594F85C10A8
:1019A00010208840304218D021680968090714D5F2
:1019B000A86020680168490304D50068000308D5C1
:1019C000A16C07E00168C90503D4016821F0080192
:1019D0000160216C09B12046884794F85C102020F2
:1019E0008840304231D021680968C9062DD5A860E9
:1019F00094F8350005282068016806D0490347D5CA
:101A0000006800031DD4616C1CE021F01601016028
:101A10002068416921F080014161206C08B9A06C07
:101A200020B12068016821F00801016094F85C1081
:101A30003F208840A86084F8358084F83490216D78
:101A40001FE0E16B09B120468847606D00282BD06C
:101A5000606DC00714D0052084F835002068016847
:101A600021F0010101600098401C0090B84203D8A9
:101A700020680068C007F6D184F8358084F8349077
:101A8000E16C002910D001B02046BDE8F0430847C2
:101A90000168C905D5D4016821F01001016084F8FE
:101AA000358084F83490CCE7BDE8F8834C00002002
:101AB0002DE9F041044600F089F906465CB10220A8
:101AC00084F83500002584F834502068016821F03E
:101AD000010101600DE00120BDE8F08100F076F920
:101AE000801B052805D920206065032084F8350077
:101AF000F2E720680068C007F0D12268116820482A
:101B00000140D4E901031843D4E9033633431843B1
:101B100063691843A3691843E3691843236A1843A8
:101B20000843616A042903D1D4E90B13194308431C
:101B3000106020684069666A20F0070130460E4355
:101B4000012704280CD1A06A0643E06A40B1204670
:101B5000FFF7C8FC20B14020606584F83570BAE713
:101B6000206846612046FFF7A9FC94F85C203F21DD
:101B700091408160656584F835700020ACE7000015
:101B80003F8010F070B5044600F020F90546601C57
:101B900002D004480078044400F018F9401BA04229
:101BA000FAD370BD40000020012801D1014908701E
:101BB0007047000036000020044910B50A68024250
:101BC00002D00860FFF7F0FF10BD0000143C014098
:101BD0002DE9F84FDFF8BCA1002201250AF1040B22
:101BE00003264FF00F090BF1040E00BF0B6805FA36
:101BF00002F42340A34270D10F7907F00307012FAD
:101C000001D0022F16D187684FEA420806FA08FC75
:101C100027EA0C07D1F80CC00CFA08FC4CEA070CB8
:101C2000C0F808C04768A7430C79C4F30014944077
:101C30003C4344600C79E443A4070AD0C4684FEAEB
:101C4000420C06FA0CF7BC438F6807FA0CF72743DF
:101C5000C7600C7904F00304022C12D1D40800EB05
:101C6000840CDCF820405707FF0E09FA07F824EA35
:101C70000804D1F8108008FA07F848EA0408CCF8FC
:101C8000208004684FEA420C06FA0CF7BC430F7937
:101C900007F0030707FA0CF7274307604C6814F4B2
:101CA000403F70D03C4C276847F480472760246849
:101CB00022F0030704F480440094384C07EB040C32
:101CC000DCF8084897074FEA177809FA08F7BC4389
:101CD000334FB84202D1002724E054E0314FB842DC
:101CE00001D101271EE0304FB84201D1022719E08F
:101CF0002E4FB84201D1032714E02D4FB84201D135
:101D000004270FE02B4FB84201D105270AE02A4FE4
:101D1000B84201D1062705E0284FB84201D1072774
:101D200000E0082707FA08F72743CCF80878DAF824
:101D300000405746D1F804C09C435FEACC3C00D534
:101D40001C433C60DBF800405F46D1F804C09C4374
:101D50005FEA8C3C00D51C433C60DEF800407746CF
:101D6000D1F804C09C435FEACC2C00D51C433C60F6
:101D7000084F0C373C68D1F804C09C435FEA8C2CB8
:101D800000D51C433C60521C102AFFF42FAFBDE865
:101D9000F88F0000003C0140443802400030014010
:101DA000000002400004024000080240000C024013
:101DB000001002400014024000180240001C0240C3
:101DC0000AB1816170470904FBE70000014880689F
:101DD000704700004000002070B5040025D094F842
:101DE0003D00002520B984F83C50204600F03EFA22
:101DF000242084F83D002068016821F00101016081
:101E00002068016841F4004101602068016821F404
:101E10000041016001F02AF94D4A6168914201D800
:101E20004C4900E04C49884201D2012070BD4B4929
:101E30002368B0FBF1F15E6826F03F060E435E605A
:101E40006368934206D94FF4967359434FF47A73FB
:101E5000B1FBF3F12368491C1E6A26F03F063143AB
:101E600019626168914210D84900401EB0FBF1F23E
:101E7000521CC2F30B02042A01D2042022E0B0FB60
:101E8000F1F0401CC0F30B001CE0A268F2B301EBC0
:101E9000C10303EB0116431EB3FBF6F35B1C43F4D3
:101EA00080431B0549D092B301EBC10202EB011143
:101EB000401EB0FBF1F0401CC0F30B0040F480402A
:101EC00040F400402168CA694CF6FF739A431043FE
:101ED000C861D4E9071001432068026822F0C002FB
:101EE00011430160D4E9030101432068826848F28C
:101EF000FF339A4311438160D4E905010843216807
:101F0000CA6822F0FF021043C86001E00EE016E04C
:101F10002068016841F0010101602564202084F8F7
:101F20003D00256384F83E50002070BD01EB410662
:101F3000431EB3FBF6F35B1CB3E70120C2E701EBE2
:101F40004101401EB0FBF1F0401CC0F30B00B7E7AD
:101F5000A086010080841E0000093D0040420F0061
:101F60002DE9F84F1F4690468A460446DDF8289032
:101F7000FFF72CFF054694F83D00202875D1192362
:101F800001226C492046009502F04AF90028F5D15B
:101F900094F83C00012868D0012084F83C002068B7
:101FA0000168C90703D1016841F00101016020689F
:101FB000016821F400610160222084F83D001020B6
:101FC00084F83E0000262664C4F824806785608D6E
:101FD00020855948E0622B464A465146204602F089
:101FE00035F8002878D1208D544F68B1012814D0DD
:101FF00002282068016816D041F4806101602068E1
:1020000041698069009087E0206841698169009199
:10201000016841F4007101607EE02068016821F4EC
:1020200080610160F0E721F480610160206801684F
:1020300041F40061E2E7032848D801280AD00228C9
:1020400014D04B46002239462046009502F0E8F8AD
:10205000D8BB27E02A464946204602F060F9A0BBDB
:1020600020680069616A08704DE061E04B4600221B
:1020700039462046009502F0D3F830BB206801684D
:1020800041F40071016020680069616A0870606A4B
:10209000401C6062218D491E2185618D491E61852C
:1020A00021682EE02068016821F4806101602068C9
:1020B0000069616A0870606A401C6062208D401E81
:1020C0002085608D401E6085D0E705E02A464946A0
:1020D000204602F024F910B10120BDE8F88F2068F5
:1020E0000069616A0870606A401C6062218D491E47
:1020F0002185618D491E618521684A69D243520755
:102100000AD409690170606A401C6062208D401E1B
:102110002085608D401E6085208D00288BD1202079
:1021200084F83D0084F83E6084F83C600020D4E7E9
:102130000220D2E7020010000000FFFF04000100AF
:102140002DE9F84F1F4690468A460446DDF8289050
:10215000FFF73CFE054694F83D0020287FD1192367
:10216000012240492046009502F05AF8002876D115
:1021700094F83C00012872D0012084F83C002068CB
:102180000168C90703D1016841F0010101602068BD
:10219000016821F400610160212084F83D001020D5
:1021A00084F83E0000262664C4F824806785608D8C
:1021B00020852D48E0622B464A465146204601F0D4
:1021C000BBFF90B9206841698069009036E02A46DB
:1021D0004946204602F0D6F850B1206C042804D1BC
:1021E0002068016841F4007101600120BDE8F88FAA
:1021F000606A216800780861606A401C6062618DD5
:10220000491E6185218D491E89B221852268536945
:10221000DB435B070BD451B100781061606A401C4E
:102220006062608D401E6085208D401E20852A469C
:102230004946204601F0CEFF0028CED1208D00284F
:10224000C5D154F83D0B016841F4007101602020B4
:1022500004F81E09E67766770020C7E7FFE702204B
:10226000C4E70000020010000000FFFFF0B587B0D7
:10227000044614216846FEF74DF82668204C1F4F8F
:1022800000251F481222032104231034BE4218D116
:10229000066846F002060660006800F0020005903D
:1022A000CDE90313C0208DE8250069461548FFF7E6
:1022B0008FFC206840F400102060206800F40010BB
:1022C00019E0114FBE4217D1066846F0200606609D
:1022D000006800F0200005908DE82600CDE903138A
:1022E00069460A48FFF774FC206840F480002060CB
:1022F000206800F48000059007B0F0BD0054004055
:1023000030380240000402400058004000140240EF
:1023100002488168027811448160704740000020C3
:102320000B4810B5016841F400710160016841F487
:1023300080610160016841F480710160032000F058
:102340008DF80F2000F006F800F03EF8002010BDD8
:10235000003C024010B5014688B00022192000F070
:102360005DF8192000F04CF813480024016841F092
:1023700001010160006805A900F0010006906846AF
:1023800000F04EFE00F082FE0C494000B0FBF1F17F
:102390000C480B4A491E026040F2E732C0E90324B0
:1023A000C0E9011401F01FFA10B1012008B010BDFE
:1023B000044801F047FAF9E74438024040420F0070
:1023C00000000140700B00200C4882B0016841F40D
:1023D00080410160006800F4804000900748001FC1
:1023E000016841F0805101600068002200F08050D7
:1023F00000900F21901E02B000F010B84438024047
:10240000002809DB00F01F020121914040098000F3
:1024100000F1E020C0F8001170470000F0B40E4B4E
:102420001B680C46C3F30223C3F10705042D00D932
:102430000425191D072901D2002300E0DB1E012617
:1024400006FA05F1491E214099409E40761E16402D
:102450003143F0BC05F0FCB90CED00E0064900F09A
:10246000070208684FF6FF03184040EA0220034ABB
:1024700010430860704700000CED00E00000FA0512
:1024800070470068416200207047F0B50368586AE1
:1024900039B19C6A4FF4827600EB144400204D1E43
:1024A0000AE040EA024098620FE006EB8007DF593D
:1024B000401C04EB1744C0B2A842F6D344EA0240E1
:1024C0004FF4807202EB810158500020F0BDD0F82B
:1024D000040404F0B6B8C1EBC10200EB8202D0F8EC
:1024E0000404926C04F017B8C1EBC10200EB820245
:1024F000D0F80404D2F8082204F06BB8D0F8040431
:1025000004F0A1B870B504460B0601F00F00C0EB53
:10251000C00104EB81014FF001024FF0000503D52B
:1025200081F83D203C3103E081F8FD5101F5FE7159
:10253000087094F8BC03012808D084F8BC232068F4
:1025400004F0A8FC84F8BC53002070BD022070BDCC
:1025500070B5044601F00F006268904201D9012075
:1025600070BD0B0601F00F01C1EBC10104EB81014D
:102570004FF001024FF0000503D581F83D203C31BA
:1025800003E081F8FD5101F5FE718D70087094F83B
:10259000BC03012808D084F8BC23206804F074FE32
:1025A00084F8BC53002070BD022070BD01F00F0103
:1025B000C1EBC10100EB8100D0F8140270472DE996
:1025C000F04104460F0601F00F00C0EBC00104EB20
:1025D00081014FF001064FF0000503D581F83D6001
:1025E0003C3103E081F8FD5101F5FE7108708A600D
:1025F000CB704A7802B1C880022B00D10D7194F8DB
:10260000BC03012809D084F8BC63206804F09AFB5D
:10261000284684F8BC53BDE8F0810220FBE770B582
:102620000C4601F00F05C5EBC50100EB8101C1F8B7
:102630001032C1F808220023C1F8143281F8FD31AC
:1026400081F8FC51036901F5FE71012B00D10A618B
:102650002207027C006803D004F06EFE002070BDEB
:1026600004F05AFDFAE770B504460D4601F00F007C
:102670006168884201D9012070BD29064FF000062B
:102680004FF0010207D5C0EBC00104EB810181F8D6
:102690003D203C3107E0C5EBC50104EB810181F829
:1026A000FD6101F5FE718A70087094F8BC03012881
:1026B00007D084F8BC23206804F012FE280702D05B
:1026C00007E0022070BD217C04F57172206804F0DF
:1026D000AFFD84F8BC63002070BD70B50C4601F0FE
:1026E0000F05C5EBC50100EB81010B658A64002372
:1026F0004B65012381F83D3001F83C5F0369012BF4
:1027000000D10A612207027C006803D004F014FEA5
:10271000002070BD04F000FDFAE700002DE9FC5F29
:1027200005680446284604F038FF00287ED120685A
:1027300004F05FFF002879D0206804F05AFF80077A
:1027400004D52168486900F002004861206804F05F
:1027500050FFC10604F57170009034D5206881697E
:1027600021F0100181612F6A07F00F00C0EBC0005B
:1027700004EB8006C7F3434006F5FE76022802D03C
:10278000062811D01AE047F6F070074216D0C7F3BA
:102790000A1217462846F16804F02FFFF068384403
:1027A000F060B069384408E008222846009904F037
:1027B00024FFB069C7F30A110844B0612068816939
:1027C00041F010018161206804F013FF00034FF015
:1027D000010A4FF0080B5BD50026206804F0E8FEE4
:1027E0000746DFF8689351E0F8074DD0F1B2206852
:1027F00004F0F7FE8046C00707D005EB4611C1F88C
:1028000008AB3146204602F023FF5FEA087022D56C
:1028100005EB4611C1F808BB2068016C00EB4610BF
:102820000191D0F8082B494507D900E08BE111044C
:1028300003D54FF40041C0F8081B204600F077FA9A
:102840000198484507D92069012804D12068012151
:10285000009A04F0EDFC5FEAC86004D505EB461170
:102860001020C1F8080B5FEA886004D505EB46111B
:102870002020C1F8080B5FEA884005D505EB46101B
:102880004FF40051C0F8081B7F08761C002FABD115
:10289000206804F0AEFE40034FF000095CD52068CC
:1028A00004F07FFE0746002654E0F80750D0F1B24E
:1028B000206804F084FE8046C00723D006F00F0293
:1028C0000AFA02F0D5F834288243C5F8342805EB1B
:1028D0004610C0F808A9206901280FD1C6EBC60030
:1028E00004EB8000D0E911211144816436B9206DD8
:1028F00020B920680121009A04F09AFCF1B2204628
:10290000FFF7E9FD5FEA087003D505EB4611C1F852
:1029100008B95FEAC86004D505EB46111020C1F87C
:1029200008095FEA486004D505EB46114020C1F86C
:1029300008095FEA887004D505EB46110220C1F84A
:1029400008095FEA086003D53146204602F0E6FE3A
:102950007F08761C002FA8D1206804F04AFE0028CA
:1029600011DAD5F8040820F00100C5F8040894F83D
:10297000F403012829D0204600F0BDF92068416900
:1029800001F000414161206804F033FE00050BD5E1
:10299000D5F80808C00702D0204600F0F1F92068F9
:1029A000416901F400614161206804F022FEC00425
:1029B00068D5D5F8040820F00100C5F804081021F6
:1029C000206804F0C7FD002127E084F8F49300217B
:1029D0002046FFF755FDD1E705EB41104FF67F325A
:1029E000C0F80829D0F8003923F40013C0F80039E2
:1029F000D0F8003943F00063C0F80039C0F8082B64
:102A0000D0F8002B22F40012C0F8002BD0F8002BD5
:102A100042F00062C0F8002B491C60688842DBD895
:102A2000D5F81C0840F00110C5F81C08206B60B1F7
:102A3000D5F8840840F00B00C5F88408D5F84408A0
:102A400040F00B00C5F844080CE0D5F8141842F229
:102A50002B000143C5F81418D5F8100840F00B00FE
:102A6000C5F81008D5F8000820F4FE60C5F8000885
:102A7000217C2068009A04F0DBFB2068416901F4A6
:102A800080514161206804F0B4FD800415D52068B0
:102A900004F098F9206804F073FDE06000F0E0FABB
:102AA0000146227B206804F007FE204600F00CF966
:102AB0002068416901F400514161206804F099FDEA
:102AC000000707D5204600F01AF92068416901F097
:102AD00008014161206804F08CFDC00208D5002186
:102AE000204600F035F82068416901F48011416109
:102AF000206804F07EFD800208D50021204600F009
:102B00002BF82068416901F400114161206804F04C
:102B100070FD400007D52046FFF7D9FC20684169C9
:102B200001F080414161206804F063FD40070AD54F
:102B300020684568680702D52046FFF7DFFC20685B
:102B4000416829434160BDE8FC9F00000A30544FB2
:102B5000D0F8040403F0C9BDD0F8040403F0D6BDD6
:102B60002DE9F0418AB0040005D094F8BD03266831
:102B7000002520B108E001200AB0BDE8F08184F80A
:102B8000BC53204600F05EF8032084F8BD03F06BD0
:102B9000C00500D42561206804F0B8FA04F11001E2
:102BA000282288466846FDF79CFB94E80F0004F055
:102BB00017F90226C8BB0021206804F03DFD002063
:102BC00001270EE0C0EBC00104EB810181F83D70EC
:102BD00001F83C0FC880CD708D60CD60401CC0B244
:102BE0004D6161688142EDD8002011E0C0EBC00169
:102BF00004EB810181F8FD5181F8FC0181F8FF515E
:102C0000C1F80452C1F80852401CC0B2C1F81052B9
:102C100061688142EAD8282241466846FDF761FB97
:102C200094E80F0004F0B8F910B184F8BD63A2E78E
:102C300084F8385084F8BD73206804F09FF90020B0
:102C40009AE7000000B587B000210291039104913A
:102C5000059106910068B0F1A04F2BD1164801688C
:102C600041F001010160006800F0010001904FF4A3
:102C7000C050029002200390032005900A20069085
:102C800002A90E48FEF7A4FF0D48016841F080013B
:102C900001600C48016841F480410160006800F463
:102CA00080400190002205214320FFF7B7FB43201D
:102CB000FFF7A6FB07B000BD30380240000002401D
:102CC000343802404438024070B504460125E068BB
:102CD00000280ED0022801D0FEF79FFD2946D4F827
:102CE000040403F082FDD4F80404BDE8704003F04E
:102CF00033BD0025F2E7D0F8040403F05BBDD0F843
:102D0000040403F061BD10B5044690F8BC0301282B
:102D10000BD0012084F8BC0384F83810206804F03C
:102D2000B9FC002084F8BC0310BD022010BDD0F80F
:102D3000042400F57171104603F063BD10B504461C
:102D4000006894F8BC13012906D0012184F8BC1353
:102D5000A16A012902D008E0022010BDA169012961
:102D600003D0816B41F480318163206804F0D8FB8B
:102D7000206804F0F5F8002084F8BC0310BD0000C2
:102D800010B50446D4F8040403F07FFD2068D0F8A1
:102D9000001E41F00101C0F8001E206A002804D086
:102DA0000248016841F00601016010BD10ED00E02D
:102DB0002DE9F843054600684FF00109C1074FF0BF
:102DC000000601D1400727D5DFF80C81C8F86860FC
:102DD000FEF7FCFF0746414C05E000BFFEF7F6FF9B
:102DE000C01B022857D820680001F7D46868810109
:102DF000287A41EA0070394984310860C8F868903F
:102E0000FEF7E4FF074604E0FEF7E0FFC01B0228E0
:102E100041D820680001F7D52878800752D52F487F
:102E20004030016841F08051016000682C4C00F096
:102E300080500090206840F480702060FEF7C6FF4C
:102E4000074604E0FEF7C2FFC01B022823D8206813
:102E5000C005F7D5214C7034206810F4407020D0A4
:102E6000A98901F4407181421BD020681D4920F4DA
:102E70004070C1F800900E6020602068C00710D03C
:102E8000FEF7A4FF064641F2883707E0FEF79EFFF3
:102E9000801BB84202D90320BDE8F8832068800770
:102EA000F4D5E9680D48C1F301220830032A0BD09C
:102EB000016821F4F81101602068A989C1F30B01B0
:102EC000084320600020E7E70268074B22F4F8126D
:102ED00019400A430260EFE7000047420038024011
:102EE00000700040400E4742FFFCFF0F2DE9F04705
:102EF0000E46050065D0DFF81481D8F80000F7B25F
:102F000000F00700B04207D288F80070D8F800003F
:102F100000F00700B04254D128683D4C810712D51B
:102F2000400703D5206840F4E0502060287800076F
:102F300003D5206840F4604020602068A96820F034
:102F4000F000084320602878C0072DD03049686819
:102F50000839012812D0022813D0032811D009689B
:102F6000890700292DDA216821F00301014321603E
:102F7000FEF72CFF814641F2883A0EE0096889038A
:102F8000EFE709688901ECE7FEF720FFA0EB0901F4
:102F9000514502D90320BDE8F0872068696800F038
:102FA0000C00B0EB810FEFD1D8F80010404601F0D3
:102FB0000701B14207D90770006800F00700B0426E
:102FC00001D00120E7E72878400705D52068E968A7
:102FD00020F4E050084320602878000706D52068D8
:102FE000296920F4604040EAC100206000F05EF8EA
:102FF0002168084AC1F30311515CC84006490860C2
:1030000006480068FFF7A6F90020C4E7003C02402C
:103010000838024078A300084C000020440000203B
:103020000F2202600C4A136803F003034360136825
:1030300003F0F0038360136803F4E053C360126885
:103040004FF4E05303EAD20202610448006800F042
:10305000070008607047000008380240003C02404A
:1030600001480068704700004C00002004480549F2
:1030700000680968044AC1F38221515CC840704766
:103080004C0000200838024088A300080448054985
:1030900000680968044AC1F34231515CC840704776
:1030A0004C0000200838024088A30008154810B5DD
:1030B000006810F00C02144813D04110042A0FD0FD
:1030C000082A0ED10F4C241F2268236802F03F0209
:1030D0005B0207D52068C0F38810A0FB010106E061
:1030E000084610BD2168C1F38811A1FB000100232F
:1030F000FDF7C6F82168C1F30141491C4900B0FB46
:10310000F1F010BD083802400024F4002DE9F84F1A
:1031100004006ED02078DFF84C93C007A9F10405B5
:103120004AD009F104000168C1F38101012908D0E6
:103130000068C0F3810002280AD1D9F800004002DB
:1031400006D52868800337D560680028E1D033E0D1
:103150006068B0F5803F10D0B0F5A02F286810D07F
:1031600020F480302860286820F48020286060687F
:10317000A8B1FEF72BFE06460DE0286840F480302B
:10318000F4E740F480202860F7E700BFFEF71EFE5A
:10319000801B642873D828688003F7D50CE0FEF7FD
:1031A00015FE064605E000BFFEF710FE801B6428F2
:1031B000F0D828688003F7D42078DFF8AC82800745
:1031C0004FF0000A3ED5A748001D016811F00C0F12
:1031D00008D00068C0F3810002280BD1D9F80000A4
:1031E000400207D42868800716D5E068012800D17E
:1031F00012E033E1E068B8B10120C8F80000FEF742
:10320000E5FD064605E000BFFEF7E0FD801B022855
:10321000C0D828688007F7D52868216920F0F80011
:1032200040EAC10028600DE0C8F800A0FEF7CEFD1E
:10323000064604E0FEF7CAFD801B02281FD8286856
:103240008007F7D42078000722D5864F8748616928
:10325000703771B101210160FEF7B8FD064604E048
:10326000FEF7B4FD801B022809D838688007F7D51F
:103270000EE0C0F800A0FEF7A9FD064605E082E0DA
:10328000FEF7A4FD801B02287DD838688007F7D49C
:103290002078400768D5DFF8CCB100270BF13C0B54
:1032A000DBF80000C0000BD4DBF8001041F08051C7
:1032B000CBF80010DBF80000012700F080500090F0
:1032C0006B4E3068C00510D4306840F480703060B8
:1032D000FEF77CFD009005E0FEF778FD0099401AAE
:1032E000022850D83068C005F6D55E4EA0686C360E
:1032F00001280FD00528306810D020F00100306080
:10330000306820F004003060A068B8B1FEF75EFDC0
:1033100000900FE0306840F00100F4E740F0040056
:103320003060F7E7FEF752FD0099411A41F288300C
:10333000814266D830688007F4D50EE0FEF746FD7E
:10334000009007E0FEF742FD0099411A41F28830F3
:10335000814256D830688007F4D42FB1DBF80010D2
:1033600021F08051CBF80010A069C8B33D49091D78
:103370000968C1F3810102294AD00228504607D0CA
:10338000C8F8600000E03CE0FEF720FD04463BE0AA
:103390004746C8F86000FEF719FD064605E000BF85
:1033A000FEF714FD801B02282BD828688001F7D473
:1033B000D4E907010843A16A2E4A490802EB0141FA
:1033C000626A41EA8211084394F82C1040EA0161D4
:1033D000C9F8001001203866FEF7F8FC044606E044
:1033E0003EE000BFFEF7F2FC001B022809D8286867
:1033F0008001F7D534E000BFFEF7E8FC001B02288F
:1034000002D90320BDE8F88F28688001F4D427E0B2
:103410000128F7D0D9F80000E26900F48001914258
:103420001CD1226A00F03F01914217D147F6C071CA
:10343000626A0140B1EB821F10D1A26A4FF0FF33E4
:1034400000F4403103EB5202B1EB024F06D194F885
:103450002C1000F07060B0EB016F01D00120D1E7BB
:103460000020CFE70438024000004742800E474268
:10347000007000400000FFFF10B500680B46416877
:103480000D480140080CD870C1F304245C7001F0B1
:103490003F049C70C1F34231197052B902F08FF9A8
:1034A000D870587802F08BF95870987802F087F944
:1034B0009870002010BD00003FFFFF0010B50B46C4
:1034C0000168896A596001680969C1F30E01996050
:1034D000006801680E480140C1F305401870C1F34F
:1034E00006245C7001F07F049C70402404EA1141C2
:1034F000D97052B902F063F91870587802F05FF988
:103500005870987802F05BF99870002010BD0000A8
:103510007F7F7F0070B5040002D0607F10B106E0AD
:10352000012070BD00202077204600F049F80220DD
:1035300060772168CA20486221685320486220468B
:1035400002F052F9FF25042618BB206881681B4A47
:10355000114081602168886862681043D4E90423BF
:103560001A43104388602168E06808612068016997
:10357000228941EA024101612068C16821F080018D
:10358000C16020688068800607D4204600F00EF9EC
:1035900018B1206845626677C2E72068016C21F4A3
:1035A000802101642068016CA269114301642068D4
:1035B000456201206077002070BD0000BFFF8FFFD3
:1035C0001FB5002100910191029103910068084903
:1035D00088420CD102200090C00103906846FFF79A
:1035E000E7FB08B1FEF719F90249012008601FBD89
:1035F000002800403C0E47422DE9F0470446007F7A
:103600000B4601281FD04FF0010984F81C900220BE
:103610006077DAB19878D97840EA01455878197816
:10362000000240EA413005432168CA20486221680F
:1036300053204862204602F0D7F80026FF274FF0BB
:10364000040860BB1AE00220BDE8F0875878C10684
:1036500003D500F0EF000A305870D87802F0B8F8BF
:103660000204587802F0B4F842EA0022987802F096
:10367000AFF80243187842EA4035D5E70F480540D5
:10368000206845602068C16821F08001C160206821
:10369000806880060AD4204600F088F830B120689F
:1036A000476284F81D8026770120CDE720684762B5
:1036B00084F81D9026770020C6E700003FFFFF003A
:1036C0002DE9F0470446007F0D46012827D04FF032
:1036D000010A84F81CA00220607720680026806818
:1036E0004FEA4060F2B1002800DBEE70A87829783C
:1036F00040EA01476878E978000240EA0140074360
:103700002168CA204862216853204862204602F09E
:103710006BF84FF0FF084FF00409A0BB16E0022041
:10372000BDE8F087002800DBEE70287802F050F842
:103730000204687802F04CF842EA0022A87802F00D
:1037400047F80243E87842EA0047D9E716480740BD
:10375000206807602068816821F480218160D5E9B4
:103760000301084321688A68104388602068C168A3
:1037700021F08001C1602068806880060BD420465B
:1037800000F014F838B12168C1F8248084F81D9045
:1037900026770120C4E72168C1F8248084F81DA0A1
:1037A00026770020BCE700007F7F7F0070B50446CD
:1037B0000068C16821F0A001C160FEF707FB054663
:1037C0004FF47A7607E000BFFEF700FB401BB042E3
:1037D00001D9032070BD2068C0688006F4D50020A0
:1037E00070BD7047704710B5040003D094F83D00D9
:1037F00010B107E0012010BD002084F83C002046F5
:1038000000F01EF8022084F83D00211D206802F01F
:103810007BF8012084F8460084F83E0084F83F00DD
:1038200084F8400084F8410084F8420084F84300A2
:1038300084F8440084F8450084F83D00002010BD61
:103840007047000090F83D10012901D00120704719
:10385000022180F83D100168CA6842F00102CA6086
:1038600000681149884214D0B0F1804F11D00F493F
:1038700088420ED00E4988420BD00E49884208D0AB
:103880000D49884205D00D49884202D00C49884232
:1038900004D1816801F00701062903D0016841F0D5
:1038A0000101016000207047000001400004004059
:1038B00000080040000C00400004014000400140AE
:1038C00000180040704770B50446006801694FF069
:1038D0000005C943890715D4C168C943890711D4B4
:1038E000E91E016101202077206880698007204659
:1038F00002D0FFF7E7FF04E000F098F8204600F060
:1039000096F8257720680169C943490717D4C1682B
:10391000C943490713D46FF00401016102202077E5
:103920002068806910F4407F204602D0FFF7CAFF6C
:1039300004E000F07BF8204600F079F82577206855
:103940000169C943090716D4C168C943090712D4DC
:103950006FF008010161042020772068C0698007AA
:10396000204602D0FFF7AEFF04E000F05FF82046EB
:1039700000F05DF8257720680169C943C90617D4AE
:10398000C168C943C90613D46FF010010161082052
:1039900020772068C06910F4407F204602D0FFF7EE
:1039A00091FF04E000F042F8204600F040F825774F
:1039B00020680169C943C90708D1C168C943C9075B
:1039C00004D1891E0161204600F032F820680169A7
:1039D000C943090609D4C168C943090605D46FF073
:1039E000800101612046FFF7FCFE20680169C943A0
:1039F000490609D4C168C943490605D46FF040019E
:103A00000161204600F01EF820680169C94389065B
:103A10000BD4C168C943890607D46FF02001016146
:103A20002046BDE87040FFF7DDBE70BD70477047AF
:103A300000680349884201D1FEF76ABC7047000064
:103A4000000001407047704770470000F8B50168FA
:103A500004460868CA684B6910F00F0F4FF0000564
:103A600059D003F0010602F49077374365D0C107BF
:103A700005D0D10503D5216C41F001012164410736
:103A800005D5D90703D0216C41F0020121648107DB
:103A900005D5D90703D0216C41F004012164010749
:103AA00007D502F02001314303D0216C41F0080119
:103AB0002164216C00293AD0800604D5900602D5F5
:103AC000204601F0B4FF20684069216CC0F38010EB
:103AD000090700D460B3204601F082FF20684069E6
:103AE000400621D52068143050E8001F21F0400125
:103AF00040E80012002AF5D1A06BA8B16C4901651D
:103B0000A06BFDF7F2FE002811D0A06B016D01B093
:103B1000BDE8F040084783060FD593060DD5204633
:103B2000BDE8F84001F083BF2046FFF78DFFF8BDE8
:103B30002046FFF789FF2564F8BD266B2023012E60
:103B400079D1C60677D5D60675D50868486800903D
:103B50004869400640D5A16B086840680004000C25
:103B6000EAD0A28D8242E7D9E085C869B0F5807FAE
:103B70002DD020680C3050E8001F21F4807140E8FF
:103B80000012002AF5D12068143050E8001F21F0FF
:103B9000010140E80012002AF5D12068143050E8F5
:103BA000001F21F0400140E80012002AF5D184F8FE
:103BB0003E30256320680C3050E8001F21F01001D2
:103BC00040E80012002AF5D1A06BFDF745FEA08D5C
:103BD000E18D401A81B229E0A08DE18D401A81B2B9
:103BE000E08D0028A8D00029A6D020680C3050E82D
:103BF000002F22F4907240E80026002EF5D12068B4
:103C0000143050E8002F22F0010240E80026002E78
:103C1000F5D184F83E30256320680C3050E8002F41
:103C200022F0100240E80023002BF5D12046FFF7D8
:103C30000AFFF8BDFFE705062BD5150629D594F830
:103C40003D002128F5D1A068B0F5805F01D1206941
:103C5000B0B1206A411C2162216800784860E08C84
:103C6000401E0004000CE084E3D12068C16821F00C
:103C70008001C1602068C16841F04001C160D8E79F
:103C8000206A0088C0F308004860206A801C206217
:103C9000E5E74006CDD55006CBD5CA68204622F0D0
:103CA0004002CA6084F83D3000F04FF9C1E70000DF
:103CB000D159000870B5040004D094F83D000025E7
:103CC00010B106E0012070BD84F83C50204600F0A1
:103CD00023F8242084F83D002068C16821F40051B5
:103CE000C160204601F004FF2068016921F4904181
:103CF00001612068416921F02A0141612068C168A1
:103D000041F40051C1602564202084F83D0084F80E
:103D10003E00002070BD00002DE9F04186B006464F
:103D200014216846FCF7F6FA4F49D6F800C04F4810
:103D30000222032307254E4F00248C451DD14B49F9
:103D400014310E6846F010060E60096801F010018B
:103D50000591016841F0010101600068694600F0C9
:103D60000100059058028DE81500CDE9033538466D
:103D7000FDF72EFF06B0BDE8F0813C49DFF8F48086
:103D80001031C44521D10E6846F400360E60096832
:103D900001F400310591016841F001010160006802
:103DA000694600F0010005900C208DE81500CDE972
:103DB00003353846FDF70CFF002205212620FEF7CB
:103DC0002DFB2620FEF71CFBD4E72B4FBC45D1D1A1
:103DD0000F6847F480270F60096801F4802105917E
:103DE000016841F0020101600068694600F00200CC
:103DF00005904FF440608DE81500CDE903351F486C
:103E0000FDF7E6FE1F4D1E484FF000672860C5E92C
:103E100001744FF48068C5E903486C61AC61EC61E2
:103E20002C6228466C62FDF743FE08B1FDF7F5FCF5
:103E3000B563AE63134D124860353030E5E80207D4
:103E40004020A5E811010F4845F814496030AC61E5
:103E5000EC612C626C62FDF72BFE08B1FDF7DDFC16
:103E60007563AE6386E70000001001403038024001
:103E700000000240004400400048004000040240AE
:103E8000286002409C0A00202DE9F84F044690F873
:103E90003E009A4616460D46202853D1FDB1F6B194
:103EA00094F83C0001284DD0012084F83C00002704
:103EB0002764222084F83E002763FDF787FFA6854C
:103EC0008146E685A0684FF48058404501D12069BD
:103ED00040B12E465FF0000584F83C7027E00120D9
:103EE000BDE8F88F0026F7E74B4600222021204648
:103EF000CDF800A001F082FE08B10320F0E726B162
:103F0000A06840451BD038B108E020684068C0F385
:103F1000080025F8020B07E0206980B1206840689E
:103F200000F07F0006F8010BE08D401EE085E08D7B
:103F30000028D9D1202084F83E000020D0E7206856
:103F40004068EFE70220CBE770477047024A012143
:103F5000117000F045B800000000002010B50168A5
:103F60004A68D243920507D48A68D243D20703D164
:103F7000921E8A60FFF7EAFF10BD10B504000FD053
:103F800000F010F8E068216840F080000860616887
:103F900020690843A168084321684860002010BDDB
:103FA000012010BD08B500680B49884212D10B48AA
:103FB000016841F4006101600068002200F40060C3
:103FC000009005211046FEF729FABDE808400020C0
:103FD000FEF716BA08BD0000002C00404038024031
:103FE000C1680068016000207047FEE708B5012243
:103FF00000920B46024647210148FDF7B1FF08BD7C
:104000000809002008B5012200920B46024646210D
:104010000148FEF795F808BD0809002001684A69C3
:10402000D24352050FD46FF480624A61002140F8F8
:10403000301F202242738173026942F00402026140
:104040000173012070470020704700002DE9F84FF0
:104050000446C06A1E4693460D4621680A6842F42B
:1040600080620A60082807D0012805D010F5803F3B
:1040700002D0206B112804D12068016841F48071BE
:1040800001604FF001195B46002249462046009628
:1040900000F0C6F84FF4007840B120680068C00511
:1040A00001D5C4F840800320BDE8F88F2069DFF80F
:1040B00084A0B0F5804F0FD00620216800EAD51704
:1040C00047F0F000086133465A460AF106012046DF
:1040D00000F0DAF858BB03E0E8B240F001001CE061
:1040E0002168E8B2086133465A465146204600F03E
:1040F000CBF8E0B92068416981690091016841F419
:10410000807101605B46002249462046009600F01F
:1041100087F80028C1D147F0F100216808613346D3
:104120005A465146204600F0AFF80028BCD0012086
:10413000BAE7000002000100F8B50446C06A1E4656
:104140000D461746082807D0012805D010F5803FF6
:1041500002D0206B122804D12068016841F48071DC
:104160000160134600224FF001112046009600F036
:1041700057F840B120680068C00502D54FF40070C0
:1041800020640320F8BD2069B0F5804F0ED00620D2
:10419000216800EAD51040F0F000086133463A4645
:1041A0000B49204600F070F878B902E005F0FE00F7
:1041B00000E0E8B221680861054933463A46891FA4
:1041C000204600F061F80028DCD00120F8BD000096
:1041D0000800010070B516460D4604460DE0204665
:1041E000FFF71CFF08B1012070BD681C05D0FDF76A
:1041F000EDFD801BA84207D835B120684069C04357
:104200004007ECD4002070BD002044F8300F20217E
:104210006173A073216941F0200121612073E2E7FD
:104220002DE9F0471E4690460D460446C1F3074768
:10423000DDF8209008E0701C06D0FDF7C7FDA0EB6C
:104240000900B0420FD876B12068012F18D08069DC
:1042500025EA00000004000C14D000214145EAD0FA
:104260000020BDE8F087002044F8300F2021617362
:10427000A073216941F02001216120730120F0E742
:104280004069E5E70121E9E72DE9F0479A469146C3
:104290000E46044600254FF02008C1F3074725E0ED
:1042A00020684069C043400514D42068016841F487
:1042B0000071016021686FF480604861256384F8B3
:1042C0003D8084F83E50206C40F00400206484F867
:1042D0003C501FE0B9F1FF3F08D0FDF777FDA0EBA0
:1042E0000A0149450CD8B9F1000F09D02068012F07
:1042F00013D0806926EA00000004000C0BD0CFE741
:1043000044F8305F84F80D80A573206940F02000E8
:10431000206125730120BDE8F0874069EAE72DE9B7
:10432000F041002590460E460446202717E04069DC
:10433000C043C0060CD454F8301B6FF01000486125
:1043400044F810596777A577206A2062257717E02F
:10435000FDF73CFDA0EB0800B04208D83EB1206854
:104360004169C9434906E2D40020BDE8F08144F820
:10437000305F6773A573206940F0200020612573CA
:104380000120F2E770B516460D4604460DE02046C2
:10439000FFF744FE08B1012070BD681C05D0FDF791
:1043A00015FD801BA84207D835B120684069C0437D
:1043B0000006ECD4002070BD002044F8300F20210E
:1043C0006173A073216941F0200121612073E2E74C
:1043D00008B500F02FFE0B4E4FF0FF3500242A46A3
:1043E0006946706A05F0FEFA9DF8000008B106A063
:1043F00000E008A004F05CFE8DF80040012004F00D
:1044000009F9ECE7000000200D0A4C4544204F4E0E
:104410000D0A00000D0A4C4544204F46460D0A0087
:1044200008B501208DF8000001466846FFF7EAFD57
:1044300018B103A004F03CFE08BD06A0FAE7000096
:10444000496E69745F424831373530204572726F6A
:10445000720D0A00496E69745F4248313735302069
:104460004F6B0D0A00000000F0B40023002A18D999
:104470000A24302537269C46B4EB107F04D905EB7F
:10448000107701F8137003E006EB107701F8137052
:10449000000101EB430787F801C05B1CDBB29342CC
:1044A000EAD3F0BC704700001CB59FED1D0A1D4EFD
:1044B0001D4F1E4C8DED010A4FF0FF352A4601A914
:1044C000206A05F08FFA0198B0420EDA0022082126
:1044D0003846FDF775FC012000238DF800001A46D0
:1044E0001946E06A05F06EF90BE001220821384612
:1044F000FDF766FC00208DF800000146E06A05F03B
:104500000DFB012805D101232A466946606A05F0A2
:1045100059F99DF800006070012004F07BF8CDE7A8
:10452000000000000000A041001802400000002030
:1045300086B000209FED130AADF800008DED010A52
:1045400003F0E8FF03F0CEFE0FA004F0B1FD04ABD2
:1045500002AA01A9684600F033F801280ED1BDF87F
:1045600000100DA004F0A4FD0198FCF7C4F841EC84
:10457000100B0EA053EC102B04F09AFD012004F058
:1045800049F8E4E7000000004D6178333031303203
:1045900020496E69740D0A00D0C4C2CAA3BA25644A
:1045A0002020B4CE2F6D696E20202000D1AAD1F535
:1045B000A3BA252E3266202025250D0A0000000012
:1045C0002DE9F047214C80461D4620788946164645
:1045D000C0B300272770104603F058FE2946304626
:1045E00003F0EEFD291D301D04F056FD184831681A
:1045F000814228DD7168814225DD1649608895ED8C
:10460000000A01EB800181ED000A134995ED010AD2
:1046100001EB8001401C80B281ED000A6080962889
:1046200012D396210B4803F079FEA8F800009622D9
:104630000949084803F0C4FE89ED000A678001209B
:10464000BDE8F08700E067800020F9E73600002031
:104650000050C34730100020D80D002010B504468C
:10466000007B012802D1206803F07CFD002020603F
:104670006060A060207310BD5FF0010200F07F0356
:104680000B70C00909D043F08003521C01F8013BB4
:10469000042AF3DD4FF0FF307047104670472DE9D4
:1046A000F0410446002500680F462E4610B1022056
:1046B000207315E001202073084603F0B1FD20604F
:1046C000002808D0C4E9016702E0206846556D1C47
:1046D000A068A842F9D8BDE8F081206846556D1C55
:1046E000A068A842F9D866608842F4D22660F2E752
:1046F0002DE9FF47174688468146FBF73EFE84B208
:104700004046FBF73AFE0026A01D03F089FD050098
:1047100025D0A11DFBF7FEFD12A0224601682960ED
:104720008088A88049462846FBF72EFE4046FBF7C6
:1047300024FE034600200DF1040A012100908AE8BE
:104740008300424629460A2000F042F900B10126C2
:10475000284603F007FD304604B0BDE8F08701208D
:10476000FAE7000024637273702F00002DE9FF5FE9
:104770009A46934600251046DDF844900E9F139C00
:10478000FBF7FBFD06B2BBF1000F1FD006F11100D5
:104790001FFA80F807B10225109868B145F00405AA
:1047A000FBF7EBFDC7B24846FBF7E7FDC11901EB8C
:1047B0000800001D1FFA80F80F9870B1012807D07B
:1047C000022808D0022004B0BDE8F09F0120FAE7DB
:1047D00045F00C0501E045F01405129808B145F0CC
:1047E0002405009860B3019850B345F0C0070098C5
:1047F000FBF7C3FD05460198FBF7BFFD291801EB48
:104800000800001D85B229462046FFF748FF2068B2
:10481000C0B12946FBF77EFDD4E90030411C1022CF
:1048200061601A54D4E900010144681FFFF724FFB6
:1048300000B2002808DA2046FFF710FF0520C2E783
:104840000320C0E70420BEE7616823680844411CD8
:10485000616000221A54D4E90030421C04216260D5
:104860001954D4E90050421C4D2362602B54D4E902
:104870000050421C626051232B54D4E90030451C87
:10488000542265601A54D4E90050431C63602A54D2
:10489000D4E90030421C62601954D4E90020411C64
:1048A00061601754D4E90030411C4FEA1A2261605C
:1048B0001A54D4E90030421C626003F800A0D4E925
:1048C0000030411C320A61601A54D4E90020411CB6
:1048D00061601654D4E90001084432465946FBF79A
:1048E00053FD606830446060780736D5B9F1000F39
:1048F00001D10FF2D8091098FBF73FFD85B2D4E93A
:104900000030411C2A0A61601A54D4E90020411C7D
:1049100061601554D4E9000108442A461099FBF758
:1049200033FD6068284460604846FBF726FD85B289
:10493000D4E90030411C2A0A61601A54D4E90020ED
:10494000411C61601554D4E9000108442A464946D7
:10495000FBF71AFD606828446060380618D5009897
:10496000FBF70BFD85B2D4E90030411C2A0A6160D7
:104970001A54D4E90020411C61601554D4E90001A7
:1049800008442A460099FBF7FFFC606828446060F1
:10499000780618D50198FBF7F0FC85B2D4E9003011
:1049A000411C2A0A61601A54D4E90020411C61604C
:1049B0001554D4E9000108442A460199FBF7E4FCA8
:1049C0006068284460600020FDE6000000000000F0
:1049D0002DE9FF5F8B46DDE90EA24FF00005119C2B
:1049E00099465FEA0008294608D1012004B0BDE8D5
:1049F000F09F232817D02B2815D06D1C1BF805001D
:104A00000028F6D141F030070AB147F0010705EB65
:104A10000906B61C5FEA0A000DD0012805D002285D
:104A200006D00320E2E70220E0E747F0020701E0BA
:104A300047F00407B61CF11C2046FFF730FE206843
:104A4000A0B1F11CFBF766FCD4E90020411C6160B9
:104A50001754D4E9000101443046FFF70DFE002849
:104A600006DA2046FFF7FAFD0520BFE70420BDE780
:104A7000616823680844411C2A0A61601A54D4E919
:104A80000020411C61601554D4E9000108442A4605
:104A90005946FBF779FC6068BAF1000F2844606062
:104AA0000BD02368411C4FEA182261601A54D4E9E4
:104AB0000030421C626003F80080029850B1D4E9D3
:104AC000000108444A460299FBF75EFC616801EB6D
:104AD00009006060002089E77FB50D460120089C31
:104AE0000021CDE90204CDE900011E460A46EB1C77
:104AF0000CA10A20FFF76CFF10B1012004B070BDBB
:104B0000D4E90020411C61601654D4E90030411CF6
:104B10002A0A61601A54D4E90020411C61601554CE
:104B20000020EBE724647000F0B504460020012368
:104B30005D05106012E0275C166807F07F0707FB31
:104B400003661660265C360601D4401CF0BDDB010E
:104B5000AB4202D36FF00100F0BD401C8842EADB9B
:104B60004FF0FF30F0BD2DE9F8430E4607461D46D5
:104B700090462F21C01CFBF7F6FB0021009150B39B
:104B8000441C6A460421781CFFF7CEFF252003F061
:104B900047FB306008B32521FBF7BCFB24222146EC
:104BA0003068FBF79EFB009824342C3880B22880B4
:104BB000401C03F035FBC8F8000080B12988491C6F
:104BC000FBF7A8FB2A882146D8F80000FBF789FBF1
:104BD0000020BDE8F8830120FBE70220F9E73068F8
:104BE00003F0C0FA0320F4E74178022901D0012044
:104BF0007047817819B1012901D0FF207047C07832
:104C000070474178022904D1817811B9C0780A2807
:104C100001D00120704700207047000038B50446DD
:104C20000078FF210009421E0E2A01D3084638BD34
:104C30000328FCD1002000906A460421601CFFF785
:104C400073FF20440099401C022907D32278D20721
:104C500004D1028852BA921C8A4201D9FF2038BD81
:104C600004A1801CFBF76DFB08B10F2038BD0320A9
:104C700038BD000024637265710000000D4808B55E
:104C8000016841F4001101600068002200F4001086
:104C9000009005210C20FDF7C1FB0C20FDF7B0FBB7
:104CA000002205210E20FDF7B9FBBDE808400E20CB
:104CB000FDF7A6BB3038024030B5AFB000202B90D6
:104CC0002C9001212BA803F0C4FC314C314D002263
:104CD000E062D5E90001CDE92D0101212DA803F005
:104CE00001FD41F28831A06203F01CFD08350DF191
:104CF0008C0C95E80F008CE80F00002123A8083DDC
:104D000003F094FC1835206295E80F0027AD85E884
:104D10000F00002127A803F089FC1E4960621C22B5
:104D200028316846FBF7DDFA0021684603F0B0FC45
:104D30001849E0601C22443107A8FBF7D2FA002191
:104D400007A803F0A5FC134920611C2260310EA8BE
:104D5000FBF7C7FA00210EA803F09AFC0D49606129
:104D60001C227C3115A8FBF7BCFA002115A803F022
:104D70008FFC0849A0611C2298311CA8FBF7B1FAEE
:104D800000211CA803F084FCE0612FB030BD0000BE
:104D90000000002048A200082DE9F04387B014214C
:104DA0006846FBF7B7FA34484FF00009016841F054
:104DB00004010160016801F004010591016841F0FE
:104DC00020010160016801F020010591016841F0B6
:104DD00080010160016801F080010591016841F0E6
:104DE00001010160016801F001010591016841F0D4
:104DF00002010160016801F002010591016841F0C2
:104E00004001016000681D4F00F040000590002245
:104E100008213846FCF7D4FFDFF86480BE15002275
:104E200031464046FCF7CCFF01244FF48810CDE911
:104E30000040694613480294FCF7CAFE0820CDE9F9
:104E40000004032569463846CDE90245FCF7C0FE5B
:104E5000CDE90064CDE9029569464046FCF7B8FE0D
:104E6000002205210620FDF7D9FA0620FDF7C8FA31
:104E700007B0BDE8F083000030380240001802405F
:104E800000000240000802400D4810B50B490160C7
:104E90000C49416000214FF480428160C0E9031257
:104EA00041618161C1610162FCF796FF002803D076
:104EB000BDE81040FCF7B1BC10BD0000005400403C
:104EC00008090020A08601000D4810B50B490160BB
:104ED0000C49416000214FF480428160C0E9031217
:104EE00041618161C1610162FCF776FF002803D056
:104EF000BDE81040FCF791BC10BD00000058004018
:104F00005C090020A086010030B587B014216846F6
:104F1000FBF700FA1C4800241A490594C0E9001464
:104F20007F218160FF21C0E9031444618461FEF7A1
:104F3000F1FA08B1FCF771FC23258DF800508DF8CB
:104F400001408DF802400394012269460E48049402
:104F5000FEF7B6FB08B1FCF760FC05208DF81400E5
:104F60008DF8150026208DF816008DF817500122B7
:104F700005A90548FEF740FB002801D0FCF74DFCD1
:104F800007B030BD00280040B00900200C4810B523
:104F90000A4901604FF4E1314160002181600C2237
:104FA000C160C0E904128161C161FEF783FE00287F
:104FB00003D0BDE81040FCF730BC10BD001001402C
:104FC000D00900200C4810B50A4901604FF4E131C6
:104FD0004160002181600C22C160C0E9041281613E
:104FE000C161FEF767FE002803D0BDE81040FCF762
:104FF00014BC10BD00440040140A00200C4810B539
:105000000A4901604FF4E1314160002181600C22C6
:10501000C160C0E904128161C161FEF74BFE002846
:1050200003D0BDE81040FCF7F8BB10BD00480040BD
:10503000580A002010B500220F49104801F045FA27
:1050400008B1FCF7EAFB0E490C4801F049FC08B135
:10505000FCF7E3FB0B49094800F04DFF08B1FCF7F2
:10506000DCFB064801F0FAFC002803D0BDE8104044
:10507000FCF7D3BB10BD0000CC000020C8510020BD
:105080000C0200201C0100200C4810B50A490160E8
:105090004FF4C07141605F2181607F21C1604FF496
:1050A00000710161FEF769FF002803D0BDE81040E0
:1050B000FCF7B3BB10BD0000002C00405C0B0020CF
:1050C000FEE7FEE70148FDF729BB0000B8680020B5
:1050D0000024FCF761FA00BF00F024F80028FBD19F
:1050E0000AA003F0E5FF641CA4B2642C04D300F012
:1050F00057FA0024FCF722FA0320FCF72DFA08B136
:1051000000F0BAF9012003F085FAECE7C1ACBDD399
:105110004F4E454E4554B3C9B9A6095B4F4B5D0D83
:105120000A00000030B58BB0002406940794089460
:10513000012529A32BA22CA12DA0099403F0B8FFCF
:1051400006A8CDE904400294039400942B0222A205
:1051500024A125A00194FFF709FB40B130A003F082
:10516000A7FF33A003F0A4FF0BB0284630BD07987B
:1051700081B20698FCF71AFB36A003F099FFFA20DB
:10518000FCF7EAF9040021D039A003F091FF204692
:10519000FFF744FD022819D12046FFF725FD062818
:1051A00018D2DFE800F003080A0C0E1034A003F058
:1051B0007FFF00250AE037A006E03DA004E045A0FF
:1051C00002E04CA000E054A003F072FF06A8FFF735
:1051D00045FAC9E75BA0F7E7393730373531323464
:1051E00035000000313233003533353134360000BC
:1051F0004F6E654E65745F4465764C696E6B0D0A43
:1052000050524F49443A2025732C09415549463A9A
:105210002025732C0944455649443A25730D0A004C
:10522000C6BDCCA8CEDECFECD3A60D0A0000000090
:105230005741524E3A094D5154545F5061636B656A
:1052400074436F6E6E656374204661696C65640DAE
:105250000A000000C1ACBDD3C9CFB4ABCDEAB3C91D
:105260000D0AB5C8B4FDCFECD3A60D0A00000000AE
:10527000C6BDCCA8D2D1CFECD3A60D0A0000000049
:10528000546970733A09C1ACBDD3B3C9B9A60D0A4C
:10529000000000005741524E3A09C1ACBDD3CAA725
:1052A000B0DCA3BAD0ADD2E9B4EDCEF30D0A000064
:1052B0005741524E3A09C1ACBDD3CAA7B0DCA3BA1C
:1052C000B7C7B7A8B5C4636C69656E7469640D0A25
:1052D000000000005741524E3A09C1ACBDD3CAA7E5
:1052E000B0DCA3BAB7FECEF1C6F7CAA7B0DC0D0A90
:1052F000000000005741524E3A09C1ACBDD3CAA7C5
:10530000B0DCA3BAD3C3BBA7C3FBBBF2C3DCC2EB05
:10531000B4EDCEF30D0A00005741524E3A09C1AC2C
:10532000BDD3CAA7B0DCA3BAB7C7B7A8C1B4BDD3B1
:1053300028B1C8C8E7746F6B656EB7C7B7A8290DE9
:105340000A0000004552523A09C1ACBDD3CAA7B009
:10535000DCA3BACEB4D6AAB4EDCEF30D0A00000099
:1053600070B5054610212A48FAF7D4FF294C207859
:10537000012804D0002830D0022827D028E0264E6B
:105380003068FBF7B8F941EC100B24A053EC102B5C
:1053900003F08EFE28A01021008828801C48FAF710
:1053A000B9FF3068FBF7A7F941EC100B23A153ECD0
:1053B000102B174802F022FA15492846FAF7B5FFD4
:1053C00021A12846FAF7B1FF0220207000202070AA
:1053D0002846FAF7D2FFC0B270BD1C4E1CA031782F
:1053E00003F066FE14A01021008828800848FAF710
:1053F00091FF32781DA1064802F000FA04492846C0
:10540000FAF793FF10A12846FAF78FFF0120DEE795
:10541000C80D002034000020080000200D0AB1BE95
:10542000B4CECAE4B3F6B9E2D5D5C7BFB6C83A2000
:1054300025660D0A000000007B000000224C494751
:1054400048223A25660000007D000000010000208F
:105450000D0AB1BEB4CECAE4B3F6B5C6B9E2D7B44C
:10546000CCAC3A2025640D0A00000000224C4544D3
:1054700053223A256400000030B589B0054600206B
:10548000059006900390049000900190ADF80800FC
:105490002846FFF7C3FB0446042827D00F2C29D148
:1054A00002AB6A4601A92846FFF75DFB050004D060
:1054B000FCF744F86D1C1FD022E0DDE90021BDF8A7
:1054C00008301CA003F0F4FDDDE9001003AAFFF78B
:1054D0000FF998B920A003F0EBFD049881B203986E
:1054E000FCF764F903A8FFF7B9F807E02846FFF7CF
:1054F00088FB18B1FCF722F809B030BDFCF71EF8A4
:105500001BA10098FAF71DFF08B11BA005E01EA122
:105510000098FAF716FF10B11DA003F0C9FD0F2C7B
:1055200001D0032CE8D1019802F01CFE009802F093
:1055300019FEE1E7636D6469643A2025732C2072DB
:1055400065713A2025732C207265715F6C656E3A27
:105550002025640D0A000000546970733A095365F0
:105560006E6420436D64526573700D0A0000000084
:105570004F50454E00000000426C75655F4C6564FD
:105580005F4F4E0D0A000000434C4F4544000000A1
:10559000426C75655F4C65645F4F46460D0A0000BE
:1055A00030B5A7B000202390249025900446269083
:1055B000802101A8FAF7AEFE01A8FFF7D1FE050091
:1055C0000BD023A8009003230022294611A0FFF747
:1055D00083FA70B112A003F06BFD27B030BD015DFE
:1055E000DDE92323D1542499491C641C24B224915D
:1055F00000E001A8AC42F2DB249881B22398FCF7CA
:10560000D5F80FA0249903F053FD23A8FFF726F83F
:10561000E3E70000393730373531323435000000E8
:105620005741524E3A094D5154545F4E6577427579
:1056300066666572204661696C65640D0A0000004B
:1056400053656E642025642042797465730D0A00E9
:105650002DE9F04103680D4604461E6C03EB45112D
:10566000D1F8080BD4F810E04FF400474FF0200CAD
:1056700004F57172BEF1010F09D0DFF898E07645AC
:1056800039D1020432D500BFC1F8087B3FE0224B7C
:105690005FEA007E04D59E4239D90004F4D436E096
:1056A0005FEA806E02D5C1F808CB30E010F0280F19
:1056B0002DD19E4201D90004E6D4C5EBC50004EB10
:1056C0008000D1F8101BD0F80432C1F31201591A2E
:1056D000C0F81412D0F808121944C0F8081295B98D
:1056E000D4F8100278B9012120680AE080060AD5B2
:1056F000C1F808CB07E035B9D4F8100218B9002179
:10570000184601F095FDE9B22046FCF7EDFE0020B9
:10571000BDE8F0810A31544F0A30544F2DE9F84F5B
:105720000E46C1EBC60100EB810481460568D4E951
:1057300014103C34884202D90120BDE8F88F081AC1
:10574000A168814200D20846C01C870805EB4618B4
:105750001BE000BFA0EB010AA068504500D28246C2
:105760000AF10300870899F8100000901FFA8AF3E5
:10577000F2B22846E16802F013F8E16801EB0A0092
:10578000E060A16901EB0A00A061D8F8180980B2B5
:10579000B84205D3D4E90501814201D20028D9D10C
:1057A000D4E90501884208D806F00F01012088409D
:1057B000D5F834188143C5F834180020BDE7010935
:1057C00001EB810100F00F0000EB4100C0B2704717
:1057D000002102E00A38C0B2491C0A28FAD209079F
:1057E00040EA11607047000070B504460068C16867
:1057F000490614D44FF0FF31C160FCF7E7FA0546C3
:105800004FF47A7607E000BFFCF7E0FA401BB042A5
:1058100001D9032070BD2068C0684006F4D500207F
:1058200070BD000010B5502080F31188BFF34F8F7A
:10583000BFF36F8F04F0DEFA18B104494FF08050C7
:105840000860002080F3118810BD000004ED00E026
:1058500030B593B030216846FAF75CFD14210CA8EE
:10586000FAF758FD1F480025016841F0805101609A
:10587000006800F0805011901B48016841F480419D
:1058800001600068022400F480401190052000901F
:105890004FF480300190012002908005CDE9064050
:1058A00004200890A820CDE9090407200B90684641
:1058B000FDF72CFC08B172B6FEE70CA90F2081E8B9
:1058C00031004FF4A0500F904FF4805010900521FC
:1058D0000CA8FDF70BFB002801D072B6FEE713B051
:1058E00030BD0000403802400070004002480168AE
:1058F00041F470010160704788ED00E00148FDF758
:10590000E2BF0000700B0020F0B50268254C264D68
:10591000264E274F274B4FF0804CA04209D06045C0
:1059200007D0A84205D0B04203D0B84201D0984277
:1059300004D122F0700E4A6842EA0E02A0421BD047
:10594000604519D0A84217D0B04215D0B84213D044
:10595000984211D0184DA8420ED0184DA8420BD035
:10596000174DA84208D0174DA84205D0164DA842A1
:1059700002D0164DA84203D122F44075CA682A43CA
:105980004D6922F080022A4302608A68C2620A6876
:105990008262A04201D0984201D1096901630121CC
:1059A0004161F0BD000001400004004000080040DB
:1059B000000C004000040140004001400044014050
:1059C0000048014000180040001C0040002000403A
:1059D00010B5806B0021C185C184FEF735F810BD7C
:1059E00001680C3151E8002F22F4907241E8002345
:1059F000002BF5D10168143151E8002F22F001028B
:105A000041E80023002BF5D1016B012909D1016880
:105A10000C3151E8002F22F0100241E80023002B46
:105A2000F5D1202180F83E1000210163704708B5B0
:105A300090F83E10222901D0022008BD82684FF460
:105A400080539A4201D1016921B1816A9A421BD0E7
:105A50004AB10AE00268816A5268C2F308020A8009
:105A6000816A891C08E0026972B10268526802F01A
:105A70007F020A70816A491C8162C18D491E090436
:105A8000090CC18503D019E002685268F1E701688A
:105A9000CA6822F02002CA600168CA6822F48072D3
:105AA000CA6001684A6922F001024A61202180F837
:105AB0003E10016B012903D0FEF746FA002008BD15
:105AC0000021016301680C3151E8002F22F010021F
:105AD00041E80023002BF5D101680A68D20602D5FF
